{
  "_format": "hh-sol-artifact-1",
  "contractName": "PropertyManager",
  "sourceName": "src/contracts/PropertyManager.sol",
  "abi": [
    {
      "inputs": [],
      "stateMutability": "nonpayable",
      "type": "constructor"
    },
    {
      "inputs": [],
      "name": "EnforcedPause",
      "type": "error"
    },
    {
      "inputs": [],
      "name": "ExpectedPause",
      "type": "error"
    },
    {
      "inputs": [
        {
          "internalType": "address",
          "name": "owner",
          "type": "address"
        }
      ],
      "name": "OwnableInvalidOwner",
      "type": "error"
    },
    {
      "inputs": [
        {
          "internalType": "address",
          "name": "account",
          "type": "address"
        }
      ],
      "name": "OwnableUnauthorizedAccount",
      "type": "error"
    },
    {
      "inputs": [],
      "name": "ReentrancyGuardReentrantCall",
      "type": "error"
    },
    {
      "anonymous": false,
      "inputs": [
        {
          "indexed": true,
          "internalType": "uint256",
          "name": "propertyId",
          "type": "uint256"
        }
      ],
      "name": "LeaseEnded",
      "type": "event"
    },
    {
      "anonymous": false,
      "inputs": [
        {
          "indexed": true,
          "internalType": "uint256",
          "name": "propertyId",
          "type": "uint256"
        },
        {
          "indexed": true,
          "internalType": "address",
          "name": "tenant",
          "type": "address"
        }
      ],
      "name": "LeaseInitiated",
      "type": "event"
    },
    {
      "anonymous": false,
      "inputs": [
        {
          "indexed": true,
          "internalType": "uint256",
          "name": "propertyId",
          "type": "uint256"
        },
        {
          "indexed": false,
          "internalType": "uint256",
          "name": "requestId",
          "type": "uint256"
        }
      ],
      "name": "MaintenanceRequested",
      "type": "event"
    },
    {
      "anonymous": false,
      "inputs": [
        {
          "indexed": true,
          "internalType": "uint256",
          "name": "propertyId",
          "type": "uint256"
        },
        {
          "indexed": false,
          "internalType": "uint256",
          "name": "requestId",
          "type": "uint256"
        }
      ],
      "name": "MaintenanceResolved",
      "type": "event"
    },
    {
      "anonymous": false,
      "inputs": [
        {
          "indexed": true,
          "internalType": "uint256",
          "name": "propertyId",
          "type": "uint256"
        },
        {
          "indexed": false,
          "internalType": "bool",
          "name": "maintenance",
          "type": "bool"
        }
      ],
      "name": "MaintenanceStatusUpdated",
      "type": "event"
    },
    {
      "anonymous": false,
      "inputs": [
        {
          "indexed": true,
          "internalType": "address",
          "name": "previousOwner",
          "type": "address"
        },
        {
          "indexed": true,
          "internalType": "address",
          "name": "newOwner",
          "type": "address"
        }
      ],
      "name": "OwnershipTransferred",
      "type": "event"
    },
    {
      "anonymous": false,
      "inputs": [
        {
          "indexed": false,
          "internalType": "address",
          "name": "account",
          "type": "address"
        }
      ],
      "name": "Paused",
      "type": "event"
    },
    {
      "anonymous": false,
      "inputs": [
        {
          "indexed": true,
          "internalType": "uint256",
          "name": "propertyId",
          "type": "uint256"
        },
        {
          "indexed": false,
          "internalType": "address",
          "name": "owner",
          "type": "address"
        },
        {
          "indexed": false,
          "internalType": "uint256",
          "name": "rentAmount",
          "type": "uint256"
        }
      ],
      "name": "PropertyListed",
      "type": "event"
    },
    {
      "anonymous": false,
      "inputs": [
        {
          "indexed": true,
          "internalType": "uint256",
          "name": "propertyId",
          "type": "uint256"
        },
        {
          "indexed": true,
          "internalType": "address",
          "name": "tenant",
          "type": "address"
        },
        {
          "indexed": false,
          "internalType": "uint256",
          "name": "amount",
          "type": "uint256"
        }
      ],
      "name": "RentPaid",
      "type": "event"
    },
    {
      "anonymous": false,
      "inputs": [
        {
          "indexed": false,
          "internalType": "address",
          "name": "account",
          "type": "address"
        }
      ],
      "name": "Unpaused",
      "type": "event"
    },
    {
      "inputs": [
        {
          "internalType": "uint256",
          "name": "_rentAmount",
          "type": "uint256"
        },
        {
          "internalType": "uint256",
          "name": "_securityDeposit",
          "type": "uint256"
        }
      ],
      "name": "addProperty",
      "outputs": [
        {
          "internalType": "uint256",
          "name": "",
          "type": "uint256"
        }
      ],
      "stateMutability": "nonpayable",
      "type": "function"
    },
    {
      "inputs": [
        {
          "internalType": "address",
          "name": "",
          "type": "address"
        }
      ],
      "name": "approvedPaymentTokens",
      "outputs": [
        {
          "internalType": "bool",
          "name": "",
          "type": "bool"
        }
      ],
      "stateMutability": "view",
      "type": "function"
    },
    {
      "inputs": [
        {
          "internalType": "uint256",
          "name": "_propertyId",
          "type": "uint256"
        }
      ],
      "name": "endLease",
      "outputs": [],
      "stateMutability": "nonpayable",
      "type": "function"
    },
    {
      "inputs": [
        {
          "internalType": "uint256",
          "name": "_propertyId",
          "type": "uint256"
        },
        {
          "internalType": "address",
          "name": "_tenant",
          "type": "address"
        },
        {
          "internalType": "uint256",
          "name": "_leaseDuration",
          "type": "uint256"
        }
      ],
      "name": "inititateLease",
      "outputs": [],
      "stateMutability": "nonpayable",
      "type": "function"
    },
    {
      "inputs": [
        {
          "internalType": "uint256",
          "name": "",
          "type": "uint256"
        }
      ],
      "name": "maintenanceRequestCount",
      "outputs": [
        {
          "internalType": "uint256",
          "name": "",
          "type": "uint256"
        }
      ],
      "stateMutability": "view",
      "type": "function"
    },
    {
      "inputs": [
        {
          "internalType": "uint256",
          "name": "",
          "type": "uint256"
        },
        {
          "internalType": "uint256",
          "name": "",
          "type": "uint256"
        }
      ],
      "name": "maintenanceRequests",
      "outputs": [
        {
          "internalType": "uint256",
          "name": "requestId",
          "type": "uint256"
        },
        {
          "internalType": "string",
          "name": "description",
          "type": "string"
        },
        {
          "internalType": "uint256",
          "name": "timestamp",
          "type": "uint256"
        },
        {
          "internalType": "bool",
          "name": "resolved",
          "type": "bool"
        },
        {
          "internalType": "uint256",
          "name": "cost",
          "type": "uint256"
        }
      ],
      "stateMutability": "view",
      "type": "function"
    },
    {
      "inputs": [],
      "name": "owner",
      "outputs": [
        {
          "internalType": "address",
          "name": "",
          "type": "address"
        }
      ],
      "stateMutability": "view",
      "type": "function"
    },
    {
      "inputs": [],
      "name": "pause",
      "outputs": [],
      "stateMutability": "nonpayable",
      "type": "function"
    },
    {
      "inputs": [],
      "name": "paused",
      "outputs": [
        {
          "internalType": "bool",
          "name": "",
          "type": "bool"
        }
      ],
      "stateMutability": "view",
      "type": "function"
    },
    {
      "inputs": [
        {
          "internalType": "uint256",
          "name": "_propertyId",
          "type": "uint256"
        },
        {
          "internalType": "address",
          "name": "_paymentToken",
          "type": "address"
        }
      ],
      "name": "payRent",
      "outputs": [],
      "stateMutability": "payable",
      "type": "function"
    },
    {
      "inputs": [
        {
          "internalType": "uint256",
          "name": "",
          "type": "uint256"
        }
      ],
      "name": "properties",
      "outputs": [
        {
          "internalType": "address",
          "name": "owner",
          "type": "address"
        },
        {
          "internalType": "uint256",
          "name": "rentAmount",
          "type": "uint256"
        },
        {
          "internalType": "uint256",
          "name": "securityDeposit",
          "type": "uint256"
        },
        {
          "internalType": "address",
          "name": "currentTenant",
          "type": "address"
        },
        {
          "internalType": "uint256",
          "name": "leaseStart",
          "type": "uint256"
        },
        {
          "internalType": "uint256",
          "name": "leaseEnd",
          "type": "uint256"
        },
        {
          "internalType": "bool",
          "name": "active",
          "type": "bool"
        },
        {
          "internalType": "enum PropertyManager.PropertyStatus",
          "name": "status",
          "type": "uint8"
        }
      ],
      "stateMutability": "view",
      "type": "function"
    },
    {
      "inputs": [],
      "name": "propertyCount",
      "outputs": [
        {
          "internalType": "uint256",
          "name": "",
          "type": "uint256"
        }
      ],
      "stateMutability": "view",
      "type": "function"
    },
    {
      "inputs": [],
      "name": "renounceOwnership",
      "outputs": [],
      "stateMutability": "nonpayable",
      "type": "function"
    },
    {
      "inputs": [
        {
          "internalType": "uint256",
          "name": "_propertyId",
          "type": "uint256"
        },
        {
          "internalType": "string",
          "name": "_description",
          "type": "string"
        }
      ],
      "name": "requestMaintenance",
      "outputs": [],
      "stateMutability": "nonpayable",
      "type": "function"
    },
    {
      "inputs": [
        {
          "internalType": "uint256",
          "name": "_propertyId",
          "type": "uint256"
        },
        {
          "internalType": "bool",
          "name": "_maintenance",
          "type": "bool"
        }
      ],
      "name": "setMaintenanceStatus",
      "outputs": [],
      "stateMutability": "nonpayable",
      "type": "function"
    },
    {
      "inputs": [
        {
          "internalType": "address",
          "name": "_token",
          "type": "address"
        },
        {
          "internalType": "bool",
          "name": "_approved",
          "type": "bool"
        }
      ],
      "name": "setPaymentToken",
      "outputs": [],
      "stateMutability": "nonpayable",
      "type": "function"
    },
    {
      "inputs": [],
      "name": "testConnection",
      "outputs": [
        {
          "internalType": "bool",
          "name": "",
          "type": "bool"
        }
      ],
      "stateMutability": "pure",
      "type": "function"
    },
    {
      "inputs": [
        {
          "internalType": "address",
          "name": "newOwner",
          "type": "address"
        }
      ],
      "name": "transferOwnership",
      "outputs": [],
      "stateMutability": "nonpayable",
      "type": "function"
    },
    {
      "inputs": [],
      "name": "unpause",
      "outputs": [],
      "stateMutability": "nonpayable",
      "type": "function"
    }
  ],
  "bytecode": "0x60806040523480156200001157600080fd5b5033600073ffffffffffffffffffffffffffffffffffffffff168173ffffffffffffffffffffffffffffffffffffffff1603620000885760006040517f1e4fbdf70000000000000000000000000000000000000000000000000000000081526004016200007f9190620001cb565b60405180910390fd5b6200009981620000c260201b60201c565b50600180819055506000600260006101000a81548160ff021916908315150217905550620001e8565b60008060009054906101000a900473ffffffffffffffffffffffffffffffffffffffff169050816000806101000a81548173ffffffffffffffffffffffffffffffffffffffff021916908373ffffffffffffffffffffffffffffffffffffffff1602179055508173ffffffffffffffffffffffffffffffffffffffff168173ffffffffffffffffffffffffffffffffffffffff167f8be0079c531659141344cd1fd0a4f28419497f9722a3daafe3b4186f6b6457e060405160405180910390a35050565b600073ffffffffffffffffffffffffffffffffffffffff82169050919050565b6000620001b38262000186565b9050919050565b620001c581620001a6565b82525050565b6000602082019050620001e26000830184620001ba565b92915050565b612a9780620001f86000396000f3fe6080604052600436106101145760003560e01c80638456cb59116100a0578063b36268bb11610064578063b36268bb14610356578063bd24dd951461037f578063c361a335146103c0578063f2fde38b146103eb578063f7b108081461041457610114565b80638456cb59146102a65780638da5cb5b146102bd57806391ef935c146102e8578063a363f03a14610311578063a4f676721461032d57610114565b80635c975abb116100e75780635c975abb146101c157806366fd7483146101ec578063715018a614610229578063788738951461024057806379f4ffb91461027d57610114565b806303b66f63146101195780633412a15c146101565780633f4ba83a14610181578063430884cf14610198575b600080fd5b34801561012557600080fd5b50610140600480360381019061013b9190611b4c565b610458565b60405161014d9190611b9b565b60405180910390f35b34801561016257600080fd5b5061016b61065e565b6040516101789190611bd1565b60405180910390f35b34801561018d57600080fd5b50610196610667565b005b3480156101a457600080fd5b506101bf60048036038101906101ba9190611c76565b610679565b005b3480156101cd57600080fd5b506101d66106dc565b6040516101e39190611bd1565b60405180910390f35b3480156101f857600080fd5b50610213600480360381019061020e9190611cb6565b6106f3565b6040516102209190611bd1565b60405180910390f35b34801561023557600080fd5b5061023e610713565b005b34801561024c57600080fd5b5061026760048036038101906102629190611ce3565b610727565b6040516102749190611b9b565b60405180910390f35b34801561028957600080fd5b506102a4600480360381019061029f9190611d75565b61073f565b005b3480156102b257600080fd5b506102bb6109a6565b005b3480156102c957600080fd5b506102d26109b8565b6040516102df9190611de4565b60405180910390f35b3480156102f457600080fd5b5061030f600480360381019061030a9190611ce3565b6109e1565b005b61032b60048036038101906103269190611dff565b610c1d565b005b34801561033957600080fd5b50610354600480360381019061034f9190611e3f565b611138565b005b34801561036257600080fd5b5061037d60048036038101906103789190611e7f565b611335565b005b34801561038b57600080fd5b506103a660048036038101906103a19190611b4c565b61161d565b6040516103b7959493929190611f62565b60405180910390f35b3480156103cc57600080fd5b506103d56116f5565b6040516103e29190611b9b565b60405180910390f35b3480156103f757600080fd5b50610412600480360381019061040d9190611cb6565b6116fb565b005b34801561042057600080fd5b5061043b60048036038101906104369190611ce3565b611781565b60405161044f989796959493929190612033565b60405180910390f35b6000610462611823565b60076000815480929190610475906120e0565b91905055506040518061010001604052803373ffffffffffffffffffffffffffffffffffffffff168152602001848152602001838152602001600073ffffffffffffffffffffffffffffffffffffffff1681526020016000815260200160008152602001600115158152602001600060028111156104f6576104f5611fbc565b5b81525060036000600754815260200190815260200160002060008201518160000160006101000a81548173ffffffffffffffffffffffffffffffffffffffff021916908373ffffffffffffffffffffffffffffffffffffffff160217905550602082015181600101556040820151816002015560608201518160030160006101000a81548173ffffffffffffffffffffffffffffffffffffffff021916908373ffffffffffffffffffffffffffffffffffffffff1602179055506080820151816004015560a0820151816005015560c08201518160060160006101000a81548160ff02191690831515021790555060e08201518160060160016101000a81548160ff0219169083600281111561060f5761060e611fbc565b5b02179055509050506007547f23fb658c1698b92f5fe511a079c17ecf7965cbc3f1b873328c67e2c3c0820f1f338560405161064b929190612128565b60405180910390a2600754905092915050565b60006001905090565b61066f611864565b6106776118eb565b565b610681611864565b80600660008473ffffffffffffffffffffffffffffffffffffffff1673ffffffffffffffffffffffffffffffffffffffff16815260200190815260200160002060006101000a81548160ff0219169083151502179055505050565b6000600260009054906101000a900460ff16905090565b60066020528060005260406000206000915054906101000a900460ff1681565b61071b611864565b610725600061194e565b565b60056020528060005260406000206000915090505481565b826003600082815260200190815260200160002060060160009054906101000a900460ff166107a3576040517f08c379a000000000000000000000000000000000000000000000000000000000815260040161079a9061219d565b60405180910390fd5b833373ffffffffffffffffffffffffffffffffffffffff166003600083815260200190815260200160002060030160009054906101000a900473ffffffffffffffffffffffffffffffffffffffff1673ffffffffffffffffffffffffffffffffffffffff1614610848576040517f08c379a000000000000000000000000000000000000000000000000000000000815260040161083f90612209565b60405180910390fd5b610850611823565b6000600560008781526020019081526020016000206000815480929190610876906120e0565b9190505590506040518060a0016040528082815260200186868080601f016020809104026020016040519081016040528093929190818152602001838380828437600081840152601f19601f820116905080830192505050505050508152602001428152602001600015158152602001600081525060046000888152602001908152602001600020600083815260200190815260200160002060008201518160000155602082015181600101908161092e9190612464565b506040820151816002015560608201518160030160006101000a81548160ff02191690831515021790555060808201518160040155905050857f71be2f2ca4fa8a0ac625e3ae5603b2b3c7f16e783a996a734d697c93943b0b7c826040516109969190611b9b565b60405180910390a2505050505050565b6109ae611864565b6109b6611a12565b565b60008060009054906101000a900473ffffffffffffffffffffffffffffffffffffffff16905090565b806003600082815260200190815260200160002060060160009054906101000a900460ff16610a45576040517f08c379a0000000000000000000000000000000000000000000000000000000008152600401610a3c9061219d565b60405180910390fd5b60006003600084815260200190815260200160002090508060000160009054906101000a900473ffffffffffffffffffffffffffffffffffffffff1673ffffffffffffffffffffffffffffffffffffffff163373ffffffffffffffffffffffffffffffffffffffff1614610aee576040517f08c379a0000000000000000000000000000000000000000000000000000000008152600401610ae590612582565b60405180910390fd5b60016002811115610b0257610b01611fbc565b5b8160060160019054906101000a900460ff166002811115610b2657610b25611fbc565b5b14610b66576040517f08c379a0000000000000000000000000000000000000000000000000000000008152600401610b5d906125ee565b60405180910390fd5b60008160060160016101000a81548160ff02191690836002811115610b8e57610b8d611fbc565b5b021790555060008160030160006101000a81548173ffffffffffffffffffffffffffffffffffffffff021916908373ffffffffffffffffffffffffffffffffffffffff1602179055506000816004018190555060008160050181905550827f9bbc71338da3ea3da7477f5960427aa0fe6e98aeced78a369dd1b4357a50b9f160405160405180910390a2505050565b816003600082815260200190815260200160002060060160009054906101000a900460ff16610c81576040517f08c379a0000000000000000000000000000000000000000000000000000000008152600401610c789061219d565b60405180910390fd5b823373ffffffffffffffffffffffffffffffffffffffff166003600083815260200190815260200160002060030160009054906101000a900473ffffffffffffffffffffffffffffffffffffffff1673ffffffffffffffffffffffffffffffffffffffff1614610d26576040517f08c379a0000000000000000000000000000000000000000000000000000000008152600401610d1d90612209565b60405180910390fd5b610d2e611a75565b610d36611823565b600060036000868152602001908152602001600020905060016002811115610d6157610d60611fbc565b5b8160060160019054906101000a900460ff166002811115610d8557610d84611fbc565b5b14610dc5576040517f08c379a0000000000000000000000000000000000000000000000000000000008152600401610dbc906125ee565b60405180910390fd5b8060050154421115610e0c576040517f08c379a0000000000000000000000000000000000000000000000000000000008152600401610e039061265a565b60405180910390fd5b600073ffffffffffffffffffffffffffffffffffffffff168473ffffffffffffffffffffffffffffffffffffffff1603610f5c5780600101543414610e86576040517f08c379a0000000000000000000000000000000000000000000000000000000008152600401610e7d906126c6565b60405180910390fd5b60008160000160009054906101000a900473ffffffffffffffffffffffffffffffffffffffff1673ffffffffffffffffffffffffffffffffffffffff1634604051610ed090612717565b60006040518083038185875af1925050503d8060008114610f0d576040519150601f19603f3d011682016040523d82523d6000602084013e610f12565b606091505b5050905080610f56576040517f08c379a0000000000000000000000000000000000000000000000000000000008152600401610f4d90612778565b60405180910390fd5b506110d6565b600660008573ffffffffffffffffffffffffffffffffffffffff1673ffffffffffffffffffffffffffffffffffffffff16815260200190815260200160002060009054906101000a900460ff16610fe8576040517f08c379a0000000000000000000000000000000000000000000000000000000008152600401610fdf906127e4565b60405180910390fd5b60008490508073ffffffffffffffffffffffffffffffffffffffff166323b872dd338460000160009054906101000a900473ffffffffffffffffffffffffffffffffffffffff1685600101546040518463ffffffff1660e01b815260040161105293929190612804565b6020604051808303816000875af1158015611071573d6000803e3d6000fd5b505050506040513d601f19601f820116820180604052508101906110959190612850565b6110d4576040517f08c379a00000000000000000000000000000000000000000000000000000000081526004016110cb906128c9565b60405180910390fd5b505b3373ffffffffffffffffffffffffffffffffffffffff16857f63e55317e25c0cab3a2de23ee0e244496daea0c1c2b8e272bbc01722b96bb9ae83600101546040516111219190611b9b565b60405180910390a350611132611abb565b50505050565b816003600082815260200190815260200160002060060160009054906101000a900460ff1661119c576040517f08c379a00000000000000000000000000000000000000000000000000000000081526004016111939061219d565b60405180910390fd5b60006003600085815260200190815260200160002090508060000160009054906101000a900473ffffffffffffffffffffffffffffffffffffffff1673ffffffffffffffffffffffffffffffffffffffff163373ffffffffffffffffffffffffffffffffffffffff1614611245576040517f08c379a000000000000000000000000000000000000000000000000000000000815260040161123c90612582565b60405180910390fd5b6001600281111561125957611258611fbc565b5b8160060160019054906101000a900460ff16600281111561127d5761127c611fbc565b5b036112bd576040517f08c379a00000000000000000000000000000000000000000000000000000000081526004016112b490612935565b60405180910390fd5b826112c95760006112cc565b60025b8160060160016101000a81548160ff021916908360028111156112f2576112f1611fbc565b5b0217905550837ffd3de0f8388fd323c0292b2b5f0edb37bdcc9288d68bb4794e9128842caf5110846040516113279190611bd1565b60405180910390a250505050565b826003600082815260200190815260200160002060060160009054906101000a900460ff16611399576040517f08c379a00000000000000000000000000000000000000000000000000000000081526004016113909061219d565b60405180910390fd5b833373ffffffffffffffffffffffffffffffffffffffff166003600083815260200190815260200160002060000160009054906101000a900473ffffffffffffffffffffffffffffffffffffffff1673ffffffffffffffffffffffffffffffffffffffff161461143e576040517f08c379a000000000000000000000000000000000000000000000000000000000815260040161143590612582565b60405180910390fd5b611446611823565b60006003600087815260200190815260200160002090506000600281111561147157611470611fbc565b5b8160060160019054906101000a900460ff16600281111561149557611494611fbc565b5b146114d5576040517f08c379a00000000000000000000000000000000000000000000000000000000081526004016114cc906129a1565b60405180910390fd5b600073ffffffffffffffffffffffffffffffffffffffff168573ffffffffffffffffffffffffffffffffffffffff1603611544576040517f08c379a000000000000000000000000000000000000000000000000000000000815260040161153b90612a0d565b60405180910390fd5b848160030160006101000a81548173ffffffffffffffffffffffffffffffffffffffff021916908373ffffffffffffffffffffffffffffffffffffffff160217905550428160040181905550834261159c9190612a2d565b816005018190555060018160060160016101000a81548160ff021916908360028111156115cc576115cb611fbc565b5b02179055508473ffffffffffffffffffffffffffffffffffffffff16867fcdddd59f4defd19441b2d0ec6bd6998e9f8b815b10fad5db2460b7486c1da96a60405160405180910390a3505050505050565b60046020528160005260406000206020528060005260406000206000915091505080600001549080600101805461165390612287565b80601f016020809104026020016040519081016040528092919081815260200182805461167f90612287565b80156116cc5780601f106116a1576101008083540402835291602001916116cc565b820191906000526020600020905b8154815290600101906020018083116116af57829003601f168201915b5050505050908060020154908060030160009054906101000a900460ff16908060040154905085565b60075481565b611703611864565b600073ffffffffffffffffffffffffffffffffffffffff168173ffffffffffffffffffffffffffffffffffffffff16036117755760006040517f1e4fbdf700000000000000000000000000000000000000000000000000000000815260040161176c9190611de4565b60405180910390fd5b61177e8161194e565b50565b60036020528060005260406000206000915090508060000160009054906101000a900473ffffffffffffffffffffffffffffffffffffffff16908060010154908060020154908060030160009054906101000a900473ffffffffffffffffffffffffffffffffffffffff16908060040154908060050154908060060160009054906101000a900460ff16908060060160019054906101000a900460ff16905088565b61182b6106dc565b15611862576040517fd93c066500000000000000000000000000000000000000000000000000000000815260040160405180910390fd5b565b61186c611ac4565b73ffffffffffffffffffffffffffffffffffffffff1661188a6109b8565b73ffffffffffffffffffffffffffffffffffffffff16146118e9576118ad611ac4565b6040517f118cdaa70000000000000000000000000000000000000000000000000000000081526004016118e09190611de4565b60405180910390fd5b565b6118f3611acc565b6000600260006101000a81548160ff0219169083151502179055507f5db9ee0a495bf2e6ff9c91a7834c1ba4fdd244a5e8aa4e537bd38aeae4b073aa611937611ac4565b6040516119449190611de4565b60405180910390a1565b60008060009054906101000a900473ffffffffffffffffffffffffffffffffffffffff169050816000806101000a81548173ffffffffffffffffffffffffffffffffffffffff021916908373ffffffffffffffffffffffffffffffffffffffff1602179055508173ffffffffffffffffffffffffffffffffffffffff168173ffffffffffffffffffffffffffffffffffffffff167f8be0079c531659141344cd1fd0a4f28419497f9722a3daafe3b4186f6b6457e060405160405180910390a35050565b611a1a611823565b6001600260006101000a81548160ff0219169083151502179055507f62e78cea01bee320cd4e420270b5ea74000d11b0c9f74754ebdbfc544b05a258611a5e611ac4565b604051611a6b9190611de4565b60405180910390a1565b600260015403611ab1576040517f3ee5aeb500000000000000000000000000000000000000000000000000000000815260040160405180910390fd5b6002600181905550565b60018081905550565b600033905090565b611ad46106dc565b611b0a576040517f8dfc202b00000000000000000000000000000000000000000000000000000000815260040160405180910390fd5b565b600080fd5b600080fd5b6000819050919050565b611b2981611b16565b8114611b3457600080fd5b50565b600081359050611b4681611b20565b92915050565b60008060408385031215611b6357611b62611b0c565b5b6000611b7185828601611b37565b9250506020611b8285828601611b37565b9150509250929050565b611b9581611b16565b82525050565b6000602082019050611bb06000830184611b8c565b92915050565b60008115159050919050565b611bcb81611bb6565b82525050565b6000602082019050611be66000830184611bc2565b92915050565b600073ffffffffffffffffffffffffffffffffffffffff82169050919050565b6000611c1782611bec565b9050919050565b611c2781611c0c565b8114611c3257600080fd5b50565b600081359050611c4481611c1e565b92915050565b611c5381611bb6565b8114611c5e57600080fd5b50565b600081359050611c7081611c4a565b92915050565b60008060408385031215611c8d57611c8c611b0c565b5b6000611c9b85828601611c35565b9250506020611cac85828601611c61565b9150509250929050565b600060208284031215611ccc57611ccb611b0c565b5b6000611cda84828501611c35565b91505092915050565b600060208284031215611cf957611cf8611b0c565b5b6000611d0784828501611b37565b91505092915050565b600080fd5b600080fd5b600080fd5b60008083601f840112611d3557611d34611d10565b5b8235905067ffffffffffffffff811115611d5257611d51611d15565b5b602083019150836001820283011115611d6e57611d6d611d1a565b5b9250929050565b600080600060408486031215611d8e57611d8d611b0c565b5b6000611d9c86828701611b37565b935050602084013567ffffffffffffffff811115611dbd57611dbc611b11565b5b611dc986828701611d1f565b92509250509250925092565b611dde81611c0c565b82525050565b6000602082019050611df96000830184611dd5565b92915050565b60008060408385031215611e1657611e15611b0c565b5b6000611e2485828601611b37565b9250506020611e3585828601611c35565b9150509250929050565b60008060408385031215611e5657611e55611b0c565b5b6000611e6485828601611b37565b9250506020611e7585828601611c61565b9150509250929050565b600080600060608486031215611e9857611e97611b0c565b5b6000611ea686828701611b37565b9350506020611eb786828701611c35565b9250506040611ec886828701611b37565b9150509250925092565b600081519050919050565b600082825260208201905092915050565b60005b83811015611f0c578082015181840152602081019050611ef1565b60008484015250505050565b6000601f19601f8301169050919050565b6000611f3482611ed2565b611f3e8185611edd565b9350611f4e818560208601611eee565b611f5781611f18565b840191505092915050565b600060a082019050611f776000830188611b8c565b8181036020830152611f898187611f29565b9050611f986040830186611b8c565b611fa56060830185611bc2565b611fb26080830184611b8c565b9695505050505050565b7f4e487b7100000000000000000000000000000000000000000000000000000000600052602160045260246000fd5b60038110611ffc57611ffb611fbc565b5b50565b600081905061200d82611feb565b919050565b600061201d82611fff565b9050919050565b61202d81612012565b82525050565b600061010082019050612049600083018b611dd5565b612056602083018a611b8c565b6120636040830189611b8c565b6120706060830188611dd5565b61207d6080830187611b8c565b61208a60a0830186611b8c565b61209760c0830185611bc2565b6120a460e0830184612024565b9998505050505050505050565b7f4e487b7100000000000000000000000000000000000000000000000000000000600052601160045260246000fd5b60006120eb82611b16565b91507fffffffffffffffffffffffffffffffffffffffffffffffffffffffffffffffff820361211d5761211c6120b1565b5b600182019050919050565b600060408201905061213d6000830185611dd5565b61214a6020830184611b8c565b9392505050565b7f50726f706572747920646f6573206e6f74206578697374000000000000000000600082015250565b6000612187601783611edd565b915061219282612151565b602082019050919050565b600060208201905081810360008301526121b68161217a565b9050919050565b7f4e6f742063757272656e742074656e616e740000000000000000000000000000600082015250565b60006121f3601283611edd565b91506121fe826121bd565b602082019050919050565b60006020820190508181036000830152612222816121e6565b9050919050565b7f4e487b7100000000000000000000000000000000000000000000000000000000600052604160045260246000fd5b7f4e487b7100000000000000000000000000000000000000000000000000000000600052602260045260246000fd5b6000600282049050600182168061229f57607f821691505b6020821081036122b2576122b1612258565b5b50919050565b60008190508160005260206000209050919050565b60006020601f8301049050919050565b600082821b905092915050565b60006008830261231a7fffffffffffffffffffffffffffffffffffffffffffffffffffffffffffffffff826122dd565b61232486836122dd565b95508019841693508086168417925050509392505050565b6000819050919050565b600061236161235c61235784611b16565b61233c565b611b16565b9050919050565b6000819050919050565b61237b83612346565b61238f61238782612368565b8484546122ea565b825550505050565b600090565b6123a4612397565b6123af818484612372565b505050565b5b818110156123d3576123c860008261239c565b6001810190506123b5565b5050565b601f821115612418576123e9816122b8565b6123f2846122cd565b81016020851015612401578190505b61241561240d856122cd565b8301826123b4565b50505b505050565b600082821c905092915050565b600061243b6000198460080261241d565b1980831691505092915050565b6000612454838361242a565b9150826002028217905092915050565b61246d82611ed2565b67ffffffffffffffff81111561248657612485612229565b5b6124908254612287565b61249b8282856123d7565b600060209050601f8311600181146124ce57600084156124bc578287015190505b6124c68582612448565b86555061252e565b601f1984166124dc866122b8565b60005b82811015612504578489015182556001820191506020850194506020810190506124df565b86831015612521578489015161251d601f89168261242a565b8355505b6001600288020188555050505b505050505050565b7f4e6f742070726f7065727479206f776e65720000000000000000000000000000600082015250565b600061256c601283611edd565b915061257782612536565b602082019050919050565b6000602082019050818103600083015261259b8161255f565b9050919050565b7f50726f7065727479206e6f742072656e74656400000000000000000000000000600082015250565b60006125d8601383611edd565b91506125e3826125a2565b602082019050919050565b60006020820190508181036000830152612607816125cb565b9050919050565b7f4c65617365206578706972656400000000000000000000000000000000000000600082015250565b6000612644600d83611edd565b915061264f8261260e565b602082019050919050565b6000602082019050818103600083015261267381612637565b9050919050565b7f496e636f72726563742072656e7420616d6f756e740000000000000000000000600082015250565b60006126b0601583611edd565b91506126bb8261267a565b602082019050919050565b600060208201905081810360008301526126df816126a3565b9050919050565b600081905092915050565b50565b60006127016000836126e6565b915061270c826126f1565b600082019050919050565b6000612722826126f4565b9150819050919050565b7f5472616e73666572206661696c65640000000000000000000000000000000000600082015250565b6000612762600f83611edd565b915061276d8261272c565b602082019050919050565b6000602082019050818103600083015261279181612755565b9050919050565b7f546f6b656e206e6f7420617070726f7665640000000000000000000000000000600082015250565b60006127ce601283611edd565b91506127d982612798565b602082019050919050565b600060208201905081810360008301526127fd816127c1565b9050919050565b60006060820190506128196000830186611dd5565b6128266020830185611dd5565b6128336040830184611b8c565b949350505050565b60008151905061284a81611c4a565b92915050565b60006020828403121561286657612865611b0c565b5b60006128748482850161283b565b91505092915050565b7f546f6b656e207472616e73666572206661696c65640000000000000000000000600082015250565b60006128b3601583611edd565b91506128be8261287d565b602082019050919050565b600060208201905081810360008301526128e2816128a6565b9050919050565b7f43616e6e6f74206d61696e7461696e2072656e7465642070726f706572747900600082015250565b600061291f601f83611edd565b915061292a826128e9565b602082019050919050565b6000602082019050818103600083015261294e81612912565b9050919050565b7f50726f7065727479206e6f7420617661696c61626c6500000000000000000000600082015250565b600061298b601683611edd565b915061299682612955565b602082019050919050565b600060208201905081810360008301526129ba8161297e565b9050919050565b7f496e76616c69642074656e616e74206164647265737300000000000000000000600082015250565b60006129f7601683611edd565b9150612a02826129c1565b602082019050919050565b60006020820190508181036000830152612a26816129ea565b9050919050565b6000612a3882611b16565b9150612a4383611b16565b9250828201905080821115612a5b57612a5a6120b1565b5b9291505056fea2646970667358221220b8b63f510daccd6130f80012a6440595067b7d19f32a624af60aa2a94db4f31964736f6c63430008140033",
  "linkReferences": {},
  "deployedLinkReferences": {}
}