{
  "_format": "hh-sol-artifact-1",
  "contractName": "PropertyManager",
  "sourceName": "src/contracts/PropertyManager.sol",
  "abi": [
    {
      "inputs": [],
      "stateMutability": "nonpayable",
      "type": "constructor"
    },
    {
      "inputs": [],
      "name": "EnforcedPause",
      "type": "error"
    },
    {
      "inputs": [],
      "name": "ExpectedPause",
      "type": "error"
    },
    {
      "inputs": [
        {
          "internalType": "address",
          "name": "owner",
          "type": "address"
        }
      ],
      "name": "OwnableInvalidOwner",
      "type": "error"
    },
    {
      "inputs": [
        {
          "internalType": "address",
          "name": "account",
          "type": "address"
        }
      ],
      "name": "OwnableUnauthorizedAccount",
      "type": "error"
    },
    {
      "inputs": [],
      "name": "ReentrancyGuardReentrantCall",
      "type": "error"
    },
    {
      "anonymous": false,
      "inputs": [
        {
          "indexed": true,
          "internalType": "uint256",
          "name": "propertyId",
          "type": "uint256"
        },
        {
          "indexed": true,
          "internalType": "address",
          "name": "tenant",
          "type": "address"
        }
      ],
      "name": "LeaseInitiated",
      "type": "event"
    },
    {
      "anonymous": false,
      "inputs": [
        {
          "indexed": true,
          "internalType": "uint256",
          "name": "propertyId",
          "type": "uint256"
        },
        {
          "indexed": false,
          "internalType": "uint256",
          "name": "requestId",
          "type": "uint256"
        }
      ],
      "name": "MaintenanceRequested",
      "type": "event"
    },
    {
      "anonymous": false,
      "inputs": [
        {
          "indexed": true,
          "internalType": "uint256",
          "name": "propertyId",
          "type": "uint256"
        },
        {
          "indexed": false,
          "internalType": "uint256",
          "name": "requestId",
          "type": "uint256"
        }
      ],
      "name": "MaintenanceResolved",
      "type": "event"
    },
    {
      "anonymous": false,
      "inputs": [
        {
          "indexed": true,
          "internalType": "address",
          "name": "previousOwner",
          "type": "address"
        },
        {
          "indexed": true,
          "internalType": "address",
          "name": "newOwner",
          "type": "address"
        }
      ],
      "name": "OwnershipTransferred",
      "type": "event"
    },
    {
      "anonymous": false,
      "inputs": [
        {
          "indexed": false,
          "internalType": "address",
          "name": "account",
          "type": "address"
        }
      ],
      "name": "Paused",
      "type": "event"
    },
    {
      "anonymous": false,
      "inputs": [
        {
          "indexed": true,
          "internalType": "uint256",
          "name": "propertyId",
          "type": "uint256"
        },
        {
          "indexed": false,
          "internalType": "address",
          "name": "owner",
          "type": "address"
        },
        {
          "indexed": false,
          "internalType": "uint256",
          "name": "rentAmount",
          "type": "uint256"
        }
      ],
      "name": "PropertyListed",
      "type": "event"
    },
    {
      "anonymous": false,
      "inputs": [
        {
          "indexed": true,
          "internalType": "uint256",
          "name": "propertyId",
          "type": "uint256"
        },
        {
          "indexed": true,
          "internalType": "address",
          "name": "tenant",
          "type": "address"
        },
        {
          "indexed": false,
          "internalType": "uint256",
          "name": "amount",
          "type": "uint256"
        }
      ],
      "name": "RentPaid",
      "type": "event"
    },
    {
      "anonymous": false,
      "inputs": [
        {
          "indexed": false,
          "internalType": "address",
          "name": "account",
          "type": "address"
        }
      ],
      "name": "Unpaused",
      "type": "event"
    },
    {
      "inputs": [
        {
          "internalType": "uint256",
          "name": "_rentAmount",
          "type": "uint256"
        },
        {
          "internalType": "uint256",
          "name": "_securityDeposit",
          "type": "uint256"
        }
      ],
      "name": "addProperty",
      "outputs": [
        {
          "internalType": "uint256",
          "name": "",
          "type": "uint256"
        }
      ],
      "stateMutability": "nonpayable",
      "type": "function"
    },
    {
      "inputs": [
        {
          "internalType": "address",
          "name": "",
          "type": "address"
        }
      ],
      "name": "approvedPaymentTokens",
      "outputs": [
        {
          "internalType": "bool",
          "name": "",
          "type": "bool"
        }
      ],
      "stateMutability": "view",
      "type": "function"
    },
    {
      "inputs": [
        {
          "internalType": "uint256",
          "name": "_propertyId",
          "type": "uint256"
        },
        {
          "internalType": "address",
          "name": "_tenant",
          "type": "address"
        },
        {
          "internalType": "uint256",
          "name": "_leaseDuration",
          "type": "uint256"
        }
      ],
      "name": "inititateLease",
      "outputs": [],
      "stateMutability": "nonpayable",
      "type": "function"
    },
    {
      "inputs": [
        {
          "internalType": "uint256",
          "name": "",
          "type": "uint256"
        }
      ],
      "name": "maintenanceRequestCount",
      "outputs": [
        {
          "internalType": "uint256",
          "name": "",
          "type": "uint256"
        }
      ],
      "stateMutability": "view",
      "type": "function"
    },
    {
      "inputs": [
        {
          "internalType": "uint256",
          "name": "",
          "type": "uint256"
        },
        {
          "internalType": "uint256",
          "name": "",
          "type": "uint256"
        }
      ],
      "name": "maintenanceRequests",
      "outputs": [
        {
          "internalType": "uint256",
          "name": "requestId",
          "type": "uint256"
        },
        {
          "internalType": "string",
          "name": "description",
          "type": "string"
        },
        {
          "internalType": "uint256",
          "name": "timestamp",
          "type": "uint256"
        },
        {
          "internalType": "bool",
          "name": "resolved",
          "type": "bool"
        },
        {
          "internalType": "uint256",
          "name": "cost",
          "type": "uint256"
        }
      ],
      "stateMutability": "view",
      "type": "function"
    },
    {
      "inputs": [],
      "name": "owner",
      "outputs": [
        {
          "internalType": "address",
          "name": "",
          "type": "address"
        }
      ],
      "stateMutability": "view",
      "type": "function"
    },
    {
      "inputs": [],
      "name": "pause",
      "outputs": [],
      "stateMutability": "nonpayable",
      "type": "function"
    },
    {
      "inputs": [],
      "name": "paused",
      "outputs": [
        {
          "internalType": "bool",
          "name": "",
          "type": "bool"
        }
      ],
      "stateMutability": "view",
      "type": "function"
    },
    {
      "inputs": [
        {
          "internalType": "uint256",
          "name": "_propertyId",
          "type": "uint256"
        },
        {
          "internalType": "address",
          "name": "_paymentToken",
          "type": "address"
        }
      ],
      "name": "payRent",
      "outputs": [],
      "stateMutability": "payable",
      "type": "function"
    },
    {
      "inputs": [
        {
          "internalType": "uint256",
          "name": "",
          "type": "uint256"
        }
      ],
      "name": "properties",
      "outputs": [
        {
          "internalType": "address",
          "name": "owner",
          "type": "address"
        },
        {
          "internalType": "uint256",
          "name": "rentAmount",
          "type": "uint256"
        },
        {
          "internalType": "uint256",
          "name": "securityDeposit",
          "type": "uint256"
        },
        {
          "internalType": "address",
          "name": "currentTenant",
          "type": "address"
        },
        {
          "internalType": "uint256",
          "name": "leaseStart",
          "type": "uint256"
        },
        {
          "internalType": "uint256",
          "name": "leaseEnd",
          "type": "uint256"
        },
        {
          "internalType": "bool",
          "name": "active",
          "type": "bool"
        },
        {
          "internalType": "enum PropertyManager.PropertyStatus",
          "name": "status",
          "type": "uint8"
        }
      ],
      "stateMutability": "view",
      "type": "function"
    },
    {
      "inputs": [],
      "name": "propertyCount",
      "outputs": [
        {
          "internalType": "uint256",
          "name": "",
          "type": "uint256"
        }
      ],
      "stateMutability": "view",
      "type": "function"
    },
    {
      "inputs": [],
      "name": "renounceOwnership",
      "outputs": [],
      "stateMutability": "nonpayable",
      "type": "function"
    },
    {
      "inputs": [
        {
          "internalType": "uint256",
          "name": "_propertyId",
          "type": "uint256"
        },
        {
          "internalType": "string",
          "name": "_description",
          "type": "string"
        }
      ],
      "name": "requestMaintenance",
      "outputs": [],
      "stateMutability": "nonpayable",
      "type": "function"
    },
    {
      "inputs": [
        {
          "internalType": "address",
          "name": "_token",
          "type": "address"
        },
        {
          "internalType": "bool",
          "name": "_approved",
          "type": "bool"
        }
      ],
      "name": "setPaymentToken",
      "outputs": [],
      "stateMutability": "nonpayable",
      "type": "function"
    },
    {
      "inputs": [],
      "name": "testConnection",
      "outputs": [
        {
          "internalType": "bool",
          "name": "",
          "type": "bool"
        }
      ],
      "stateMutability": "pure",
      "type": "function"
    },
    {
      "inputs": [
        {
          "internalType": "address",
          "name": "newOwner",
          "type": "address"
        }
      ],
      "name": "transferOwnership",
      "outputs": [],
      "stateMutability": "nonpayable",
      "type": "function"
    },
    {
      "inputs": [],
      "name": "unpause",
      "outputs": [],
      "stateMutability": "nonpayable",
      "type": "function"
    }
  ],
  "bytecode": "0x60806040523480156200001157600080fd5b5033600073ffffffffffffffffffffffffffffffffffffffff168173ffffffffffffffffffffffffffffffffffffffff1603620000885760006040517f1e4fbdf70000000000000000000000000000000000000000000000000000000081526004016200007f9190620001cb565b60405180910390fd5b6200009981620000c260201b60201c565b50600180819055506000600260006101000a81548160ff021916908315150217905550620001e8565b60008060009054906101000a900473ffffffffffffffffffffffffffffffffffffffff169050816000806101000a81548173ffffffffffffffffffffffffffffffffffffffff021916908373ffffffffffffffffffffffffffffffffffffffff1602179055508173ffffffffffffffffffffffffffffffffffffffff168173ffffffffffffffffffffffffffffffffffffffff167f8be0079c531659141344cd1fd0a4f28419497f9722a3daafe3b4186f6b6457e060405160405180910390a35050565b600073ffffffffffffffffffffffffffffffffffffffff82169050919050565b6000620001b38262000186565b9050919050565b620001c581620001a6565b82525050565b6000602082019050620001e26000830184620001ba565b92915050565b61254a80620001f86000396000f3fe6080604052600436106100fe5760003560e01c806379f4ffb911610095578063b36268bb11610064578063b36268bb146102ee578063bd24dd9514610317578063c361a33514610358578063f2fde38b14610383578063f7b10808146103ac576100fe565b806379f4ffb9146102675780638456cb59146102905780638da5cb5b146102a7578063a363f03a146102d2576100fe565b80635c975abb116100d15780635c975abb146101ab57806366fd7483146101d6578063715018a614610213578063788738951461022a576100fe565b806303b66f63146101035780633412a15c146101405780633f4ba83a1461016b578063430884cf14610182575b600080fd5b34801561010f57600080fd5b5061012a600480360381019061012591906116ab565b6103f0565b60405161013791906116fa565b60405180910390f35b34801561014c57600080fd5b506101556105f6565b6040516101629190611730565b60405180910390f35b34801561017757600080fd5b506101806105ff565b005b34801561018e57600080fd5b506101a960048036038101906101a491906117d5565b610611565b005b3480156101b757600080fd5b506101c0610674565b6040516101cd9190611730565b60405180910390f35b3480156101e257600080fd5b506101fd60048036038101906101f89190611815565b61068b565b60405161020a9190611730565b60405180910390f35b34801561021f57600080fd5b506102286106ab565b005b34801561023657600080fd5b50610251600480360381019061024c9190611842565b6106bf565b60405161025e91906116fa565b60405180910390f35b34801561027357600080fd5b5061028e600480360381019061028991906118d4565b6106d7565b005b34801561029c57600080fd5b506102a561093e565b005b3480156102b357600080fd5b506102bc610950565b6040516102c99190611943565b60405180910390f35b6102ec60048036038101906102e7919061195e565b610979565b005b3480156102fa57600080fd5b506103156004803603810190610310919061199e565b610e94565b005b34801561032357600080fd5b5061033e600480360381019061033991906116ab565b61117c565b60405161034f959493929190611a81565b60405180910390f35b34801561036457600080fd5b5061036d611254565b60405161037a91906116fa565b60405180910390f35b34801561038f57600080fd5b506103aa60048036038101906103a59190611815565b61125a565b005b3480156103b857600080fd5b506103d360048036038101906103ce9190611842565b6112e0565b6040516103e7989796959493929190611b52565b60405180910390f35b60006103fa611382565b6007600081548092919061040d90611bff565b91905055506040518061010001604052803373ffffffffffffffffffffffffffffffffffffffff168152602001848152602001838152602001600073ffffffffffffffffffffffffffffffffffffffff16815260200160008152602001600081526020016001151581526020016000600281111561048e5761048d611adb565b5b81525060036000600754815260200190815260200160002060008201518160000160006101000a81548173ffffffffffffffffffffffffffffffffffffffff021916908373ffffffffffffffffffffffffffffffffffffffff160217905550602082015181600101556040820151816002015560608201518160030160006101000a81548173ffffffffffffffffffffffffffffffffffffffff021916908373ffffffffffffffffffffffffffffffffffffffff1602179055506080820151816004015560a0820151816005015560c08201518160060160006101000a81548160ff02191690831515021790555060e08201518160060160016101000a81548160ff021916908360028111156105a7576105a6611adb565b5b02179055509050506007547f23fb658c1698b92f5fe511a079c17ecf7965cbc3f1b873328c67e2c3c0820f1f33856040516105e3929190611c47565b60405180910390a2600754905092915050565b60006001905090565b6106076113c3565b61060f61144a565b565b6106196113c3565b80600660008473ffffffffffffffffffffffffffffffffffffffff1673ffffffffffffffffffffffffffffffffffffffff16815260200190815260200160002060006101000a81548160ff0219169083151502179055505050565b6000600260009054906101000a900460ff16905090565b60066020528060005260406000206000915054906101000a900460ff1681565b6106b36113c3565b6106bd60006114ad565b565b60056020528060005260406000206000915090505481565b826003600082815260200190815260200160002060060160009054906101000a900460ff1661073b576040517f08c379a000000000000000000000000000000000000000000000000000000000815260040161073290611cbc565b60405180910390fd5b833373ffffffffffffffffffffffffffffffffffffffff166003600083815260200190815260200160002060030160009054906101000a900473ffffffffffffffffffffffffffffffffffffffff1673ffffffffffffffffffffffffffffffffffffffff16146107e0576040517f08c379a00000000000000000000000000000000000000000000000000000000081526004016107d790611d28565b60405180910390fd5b6107e8611382565b600060056000878152602001908152602001600020600081548092919061080e90611bff565b9190505590506040518060a0016040528082815260200186868080601f016020809104026020016040519081016040528093929190818152602001838380828437600081840152601f19601f82011690508083019250505050505050815260200142815260200160001515815260200160008152506004600088815260200190815260200160002060008381526020019081526020016000206000820151816000015560208201518160010190816108c69190611f83565b506040820151816002015560608201518160030160006101000a81548160ff02191690831515021790555060808201518160040155905050857f71be2f2ca4fa8a0ac625e3ae5603b2b3c7f16e783a996a734d697c93943b0b7c8260405161092e91906116fa565b60405180910390a2505050505050565b6109466113c3565b61094e611571565b565b60008060009054906101000a900473ffffffffffffffffffffffffffffffffffffffff16905090565b816003600082815260200190815260200160002060060160009054906101000a900460ff166109dd576040517f08c379a00000000000000000000000000000000000000000000000000000000081526004016109d490611cbc565b60405180910390fd5b823373ffffffffffffffffffffffffffffffffffffffff166003600083815260200190815260200160002060030160009054906101000a900473ffffffffffffffffffffffffffffffffffffffff1673ffffffffffffffffffffffffffffffffffffffff1614610a82576040517f08c379a0000000000000000000000000000000000000000000000000000000008152600401610a7990611d28565b60405180910390fd5b610a8a6115d4565b610a92611382565b600060036000868152602001908152602001600020905060016002811115610abd57610abc611adb565b5b8160060160019054906101000a900460ff166002811115610ae157610ae0611adb565b5b14610b21576040517f08c379a0000000000000000000000000000000000000000000000000000000008152600401610b18906120a1565b60405180910390fd5b8060050154421115610b68576040517f08c379a0000000000000000000000000000000000000000000000000000000008152600401610b5f9061210d565b60405180910390fd5b600073ffffffffffffffffffffffffffffffffffffffff168473ffffffffffffffffffffffffffffffffffffffff1603610cb85780600101543414610be2576040517f08c379a0000000000000000000000000000000000000000000000000000000008152600401610bd990612179565b60405180910390fd5b60008160000160009054906101000a900473ffffffffffffffffffffffffffffffffffffffff1673ffffffffffffffffffffffffffffffffffffffff1634604051610c2c906121ca565b60006040518083038185875af1925050503d8060008114610c69576040519150601f19603f3d011682016040523d82523d6000602084013e610c6e565b606091505b5050905080610cb2576040517f08c379a0000000000000000000000000000000000000000000000000000000008152600401610ca99061222b565b60405180910390fd5b50610e32565b600660008573ffffffffffffffffffffffffffffffffffffffff1673ffffffffffffffffffffffffffffffffffffffff16815260200190815260200160002060009054906101000a900460ff16610d44576040517f08c379a0000000000000000000000000000000000000000000000000000000008152600401610d3b90612297565b60405180910390fd5b60008490508073ffffffffffffffffffffffffffffffffffffffff166323b872dd338460000160009054906101000a900473ffffffffffffffffffffffffffffffffffffffff1685600101546040518463ffffffff1660e01b8152600401610dae939291906122b7565b6020604051808303816000875af1158015610dcd573d6000803e3d6000fd5b505050506040513d601f19601f82011682018060405250810190610df19190612303565b610e30576040517f08c379a0000000000000000000000000000000000000000000000000000000008152600401610e279061237c565b60405180910390fd5b505b3373ffffffffffffffffffffffffffffffffffffffff16857f63e55317e25c0cab3a2de23ee0e244496daea0c1c2b8e272bbc01722b96bb9ae8360010154604051610e7d91906116fa565b60405180910390a350610e8e61161a565b50505050565b826003600082815260200190815260200160002060060160009054906101000a900460ff16610ef8576040517f08c379a0000000000000000000000000000000000000000000000000000000008152600401610eef90611cbc565b60405180910390fd5b833373ffffffffffffffffffffffffffffffffffffffff166003600083815260200190815260200160002060000160009054906101000a900473ffffffffffffffffffffffffffffffffffffffff1673ffffffffffffffffffffffffffffffffffffffff1614610f9d576040517f08c379a0000000000000000000000000000000000000000000000000000000008152600401610f94906123e8565b60405180910390fd5b610fa5611382565b600060036000878152602001908152602001600020905060006002811115610fd057610fcf611adb565b5b8160060160019054906101000a900460ff166002811115610ff457610ff3611adb565b5b14611034576040517f08c379a000000000000000000000000000000000000000000000000000000000815260040161102b90612454565b60405180910390fd5b600073ffffffffffffffffffffffffffffffffffffffff168573ffffffffffffffffffffffffffffffffffffffff16036110a3576040517f08c379a000000000000000000000000000000000000000000000000000000000815260040161109a906124c0565b60405180910390fd5b848160030160006101000a81548173ffffffffffffffffffffffffffffffffffffffff021916908373ffffffffffffffffffffffffffffffffffffffff16021790555042816004018190555083426110fb91906124e0565b816005018190555060018160060160016101000a81548160ff0219169083600281111561112b5761112a611adb565b5b02179055508473ffffffffffffffffffffffffffffffffffffffff16867fcdddd59f4defd19441b2d0ec6bd6998e9f8b815b10fad5db2460b7486c1da96a60405160405180910390a3505050505050565b6004602052816000526040600020602052806000526040600020600091509150508060000154908060010180546111b290611da6565b80601f01602080910402602001604051908101604052809291908181526020018280546111de90611da6565b801561122b5780601f106112005761010080835404028352916020019161122b565b820191906000526020600020905b81548152906001019060200180831161120e57829003601f168201915b5050505050908060020154908060030160009054906101000a900460ff16908060040154905085565b60075481565b6112626113c3565b600073ffffffffffffffffffffffffffffffffffffffff168173ffffffffffffffffffffffffffffffffffffffff16036112d45760006040517f1e4fbdf70000000000000000000000000000000000000000000000000000000081526004016112cb9190611943565b60405180910390fd5b6112dd816114ad565b50565b60036020528060005260406000206000915090508060000160009054906101000a900473ffffffffffffffffffffffffffffffffffffffff16908060010154908060020154908060030160009054906101000a900473ffffffffffffffffffffffffffffffffffffffff16908060040154908060050154908060060160009054906101000a900460ff16908060060160019054906101000a900460ff16905088565b61138a610674565b156113c1576040517fd93c066500000000000000000000000000000000000000000000000000000000815260040160405180910390fd5b565b6113cb611623565b73ffffffffffffffffffffffffffffffffffffffff166113e9610950565b73ffffffffffffffffffffffffffffffffffffffff16146114485761140c611623565b6040517f118cdaa700000000000000000000000000000000000000000000000000000000815260040161143f9190611943565b60405180910390fd5b565b61145261162b565b6000600260006101000a81548160ff0219169083151502179055507f5db9ee0a495bf2e6ff9c91a7834c1ba4fdd244a5e8aa4e537bd38aeae4b073aa611496611623565b6040516114a39190611943565b60405180910390a1565b60008060009054906101000a900473ffffffffffffffffffffffffffffffffffffffff169050816000806101000a81548173ffffffffffffffffffffffffffffffffffffffff021916908373ffffffffffffffffffffffffffffffffffffffff1602179055508173ffffffffffffffffffffffffffffffffffffffff168173ffffffffffffffffffffffffffffffffffffffff167f8be0079c531659141344cd1fd0a4f28419497f9722a3daafe3b4186f6b6457e060405160405180910390a35050565b611579611382565b6001600260006101000a81548160ff0219169083151502179055507f62e78cea01bee320cd4e420270b5ea74000d11b0c9f74754ebdbfc544b05a2586115bd611623565b6040516115ca9190611943565b60405180910390a1565b600260015403611610576040517f3ee5aeb500000000000000000000000000000000000000000000000000000000815260040160405180910390fd5b6002600181905550565b60018081905550565b600033905090565b611633610674565b611669576040517f8dfc202b00000000000000000000000000000000000000000000000000000000815260040160405180910390fd5b565b600080fd5b600080fd5b6000819050919050565b61168881611675565b811461169357600080fd5b50565b6000813590506116a58161167f565b92915050565b600080604083850312156116c2576116c161166b565b5b60006116d085828601611696565b92505060206116e185828601611696565b9150509250929050565b6116f481611675565b82525050565b600060208201905061170f60008301846116eb565b92915050565b60008115159050919050565b61172a81611715565b82525050565b60006020820190506117456000830184611721565b92915050565b600073ffffffffffffffffffffffffffffffffffffffff82169050919050565b60006117768261174b565b9050919050565b6117868161176b565b811461179157600080fd5b50565b6000813590506117a38161177d565b92915050565b6117b281611715565b81146117bd57600080fd5b50565b6000813590506117cf816117a9565b92915050565b600080604083850312156117ec576117eb61166b565b5b60006117fa85828601611794565b925050602061180b858286016117c0565b9150509250929050565b60006020828403121561182b5761182a61166b565b5b600061183984828501611794565b91505092915050565b6000602082840312156118585761185761166b565b5b600061186684828501611696565b91505092915050565b600080fd5b600080fd5b600080fd5b60008083601f8401126118945761189361186f565b5b8235905067ffffffffffffffff8111156118b1576118b0611874565b5b6020830191508360018202830111156118cd576118cc611879565b5b9250929050565b6000806000604084860312156118ed576118ec61166b565b5b60006118fb86828701611696565b935050602084013567ffffffffffffffff81111561191c5761191b611670565b5b6119288682870161187e565b92509250509250925092565b61193d8161176b565b82525050565b60006020820190506119586000830184611934565b92915050565b600080604083850312156119755761197461166b565b5b600061198385828601611696565b925050602061199485828601611794565b9150509250929050565b6000806000606084860312156119b7576119b661166b565b5b60006119c586828701611696565b93505060206119d686828701611794565b92505060406119e786828701611696565b9150509250925092565b600081519050919050565b600082825260208201905092915050565b60005b83811015611a2b578082015181840152602081019050611a10565b60008484015250505050565b6000601f19601f8301169050919050565b6000611a53826119f1565b611a5d81856119fc565b9350611a6d818560208601611a0d565b611a7681611a37565b840191505092915050565b600060a082019050611a9660008301886116eb565b8181036020830152611aa88187611a48565b9050611ab760408301866116eb565b611ac46060830185611721565b611ad160808301846116eb565b9695505050505050565b7f4e487b7100000000000000000000000000000000000000000000000000000000600052602160045260246000fd5b60038110611b1b57611b1a611adb565b5b50565b6000819050611b2c82611b0a565b919050565b6000611b3c82611b1e565b9050919050565b611b4c81611b31565b82525050565b600061010082019050611b68600083018b611934565b611b75602083018a6116eb565b611b8260408301896116eb565b611b8f6060830188611934565b611b9c60808301876116eb565b611ba960a08301866116eb565b611bb660c0830185611721565b611bc360e0830184611b43565b9998505050505050505050565b7f4e487b7100000000000000000000000000000000000000000000000000000000600052601160045260246000fd5b6000611c0a82611675565b91507fffffffffffffffffffffffffffffffffffffffffffffffffffffffffffffffff8203611c3c57611c3b611bd0565b5b600182019050919050565b6000604082019050611c5c6000830185611934565b611c6960208301846116eb565b9392505050565b7f50726f706572747920646f6573206e6f74206578697374000000000000000000600082015250565b6000611ca66017836119fc565b9150611cb182611c70565b602082019050919050565b60006020820190508181036000830152611cd581611c99565b9050919050565b7f4e6f742063757272656e742074656e616e740000000000000000000000000000600082015250565b6000611d126012836119fc565b9150611d1d82611cdc565b602082019050919050565b60006020820190508181036000830152611d4181611d05565b9050919050565b7f4e487b7100000000000000000000000000000000000000000000000000000000600052604160045260246000fd5b7f4e487b7100000000000000000000000000000000000000000000000000000000600052602260045260246000fd5b60006002820490506001821680611dbe57607f821691505b602082108103611dd157611dd0611d77565b5b50919050565b60008190508160005260206000209050919050565b60006020601f8301049050919050565b600082821b905092915050565b600060088302611e397fffffffffffffffffffffffffffffffffffffffffffffffffffffffffffffffff82611dfc565b611e438683611dfc565b95508019841693508086168417925050509392505050565b6000819050919050565b6000611e80611e7b611e7684611675565b611e5b565b611675565b9050919050565b6000819050919050565b611e9a83611e65565b611eae611ea682611e87565b848454611e09565b825550505050565b600090565b611ec3611eb6565b611ece818484611e91565b505050565b5b81811015611ef257611ee7600082611ebb565b600181019050611ed4565b5050565b601f821115611f3757611f0881611dd7565b611f1184611dec565b81016020851015611f20578190505b611f34611f2c85611dec565b830182611ed3565b50505b505050565b600082821c905092915050565b6000611f5a60001984600802611f3c565b1980831691505092915050565b6000611f738383611f49565b9150826002028217905092915050565b611f8c826119f1565b67ffffffffffffffff811115611fa557611fa4611d48565b5b611faf8254611da6565b611fba828285611ef6565b600060209050601f831160018114611fed5760008415611fdb578287015190505b611fe58582611f67565b86555061204d565b601f198416611ffb86611dd7565b60005b8281101561202357848901518255600182019150602085019450602081019050611ffe565b86831015612040578489015161203c601f891682611f49565b8355505b6001600288020188555050505b505050505050565b7f50726f7065727479206e6f742072656e74656400000000000000000000000000600082015250565b600061208b6013836119fc565b915061209682612055565b602082019050919050565b600060208201905081810360008301526120ba8161207e565b9050919050565b7f4c65617365206578706972656400000000000000000000000000000000000000600082015250565b60006120f7600d836119fc565b9150612102826120c1565b602082019050919050565b60006020820190508181036000830152612126816120ea565b9050919050565b7f496e636f72726563742072656e7420616d6f756e740000000000000000000000600082015250565b60006121636015836119fc565b915061216e8261212d565b602082019050919050565b6000602082019050818103600083015261219281612156565b9050919050565b600081905092915050565b50565b60006121b4600083612199565b91506121bf826121a4565b600082019050919050565b60006121d5826121a7565b9150819050919050565b7f5472616e73666572206661696c65640000000000000000000000000000000000600082015250565b6000612215600f836119fc565b9150612220826121df565b602082019050919050565b6000602082019050818103600083015261224481612208565b9050919050565b7f546f6b656e206e6f7420617070726f7665640000000000000000000000000000600082015250565b60006122816012836119fc565b915061228c8261224b565b602082019050919050565b600060208201905081810360008301526122b081612274565b9050919050565b60006060820190506122cc6000830186611934565b6122d96020830185611934565b6122e660408301846116eb565b949350505050565b6000815190506122fd816117a9565b92915050565b6000602082840312156123195761231861166b565b5b6000612327848285016122ee565b91505092915050565b7f546f6b656e207472616e73666572206661696c65640000000000000000000000600082015250565b60006123666015836119fc565b915061237182612330565b602082019050919050565b6000602082019050818103600083015261239581612359565b9050919050565b7f4e6f742070726f7065727479206f776e65720000000000000000000000000000600082015250565b60006123d26012836119fc565b91506123dd8261239c565b602082019050919050565b60006020820190508181036000830152612401816123c5565b9050919050565b7f50726f7065727479206e6f7420617661696c61626c6500000000000000000000600082015250565b600061243e6016836119fc565b915061244982612408565b602082019050919050565b6000602082019050818103600083015261246d81612431565b9050919050565b7f496e76616c69642074656e616e74206164647265737300000000000000000000600082015250565b60006124aa6016836119fc565b91506124b582612474565b602082019050919050565b600060208201905081810360008301526124d98161249d565b9050919050565b60006124eb82611675565b91506124f683611675565b925082820190508082111561250e5761250d611bd0565b5b9291505056fea26469706673582212206e7bcefaa9ab1a05d2e45dd7d1bfce1483f6a31dc9cf16240dea7ff0cdd5f62464736f6c63430008140033",
  "linkReferences": {},
  "deployedLinkReferences": {}
}