{"src/contracts/PropertyManager.sol":{"PropertyManager":{"abi":[{"inputs":[],"stateMutability":"nonpayable","type":"constructor"},{"inputs":[],"name":"EnforcedPause","type":"error"},{"inputs":[],"name":"ExpectedPause","type":"error"},{"inputs":[{"internalType":"address","name":"owner","type":"address"}],"name":"OwnableInvalidOwner","type":"error"},{"inputs":[{"internalType":"address","name":"account","type":"address"}],"name":"OwnableUnauthorizedAccount","type":"error"},{"inputs":[],"name":"ReentrancyGuardReentrantCall","type":"error"},{"anonymous":false,"inputs":[{"indexed":true,"internalType":"uint256","name":"propertyId","type":"uint256"}],"name":"LeaseEnded","type":"event"},{"anonymous":false,"inputs":[{"indexed":true,"internalType":"uint256","name":"propertyId","type":"uint256"},{"indexed":true,"internalType":"address","name":"tenant","type":"address"}],"name":"LeaseInitiated","type":"event"},{"anonymous":false,"inputs":[{"indexed":true,"internalType":"uint256","name":"propertyId","type":"uint256"},{"indexed":false,"internalType":"uint256","name":"requestId","type":"uint256"}],"name":"MaintenanceRequested","type":"event"},{"anonymous":false,"inputs":[{"indexed":true,"internalType":"uint256","name":"propertyId","type":"uint256"},{"indexed":false,"internalType":"uint256","name":"requestId","type":"uint256"}],"name":"MaintenanceResolved","type":"event"},{"anonymous":false,"inputs":[{"indexed":true,"internalType":"uint256","name":"propertyId","type":"uint256"},{"indexed":false,"internalType":"bool","name":"maintenance","type":"bool"}],"name":"MaintenanceStatusUpdated","type":"event"},{"anonymous":false,"inputs":[{"indexed":true,"internalType":"address","name":"previousOwner","type":"address"},{"indexed":true,"internalType":"address","name":"newOwner","type":"address"}],"name":"OwnershipTransferred","type":"event"},{"anonymous":false,"inputs":[{"indexed":false,"internalType":"address","name":"account","type":"address"}],"name":"Paused","type":"event"},{"anonymous":false,"inputs":[{"indexed":true,"internalType":"uint256","name":"propertyId","type":"uint256"},{"indexed":false,"internalType":"address","name":"owner","type":"address"},{"indexed":false,"internalType":"uint256","name":"rentAmount","type":"uint256"}],"name":"PropertyListed","type":"event"},{"anonymous":false,"inputs":[{"indexed":true,"internalType":"uint256","name":"propertyId","type":"uint256"},{"indexed":true,"internalType":"address","name":"tenant","type":"address"},{"indexed":false,"internalType":"uint256","name":"amount","type":"uint256"}],"name":"RentPaid","type":"event"},{"anonymous":false,"inputs":[{"indexed":false,"internalType":"address","name":"account","type":"address"}],"name":"Unpaused","type":"event"},{"inputs":[{"internalType":"uint256","name":"_rentAmount","type":"uint256"},{"internalType":"uint256","name":"_securityDeposit","type":"uint256"}],"name":"addProperty","outputs":[{"internalType":"uint256","name":"","type":"uint256"}],"stateMutability":"nonpayable","type":"function"},{"inputs":[{"internalType":"address","name":"","type":"address"}],"name":"approvedPaymentTokens","outputs":[{"internalType":"bool","name":"","type":"bool"}],"stateMutability":"view","type":"function"},{"inputs":[{"internalType":"uint256","name":"_propertyId","type":"uint256"}],"name":"endLease","outputs":[],"stateMutability":"nonpayable","type":"function"},{"inputs":[{"internalType":"uint256","name":"_propertyId","type":"uint256"},{"internalType":"address","name":"_tenant","type":"address"},{"internalType":"uint256","name":"_leaseDuration","type":"uint256"}],"name":"inititateLease","outputs":[],"stateMutability":"nonpayable","type":"function"},{"inputs":[{"internalType":"uint256","name":"","type":"uint256"}],"name":"maintenanceRequestCount","outputs":[{"internalType":"uint256","name":"","type":"uint256"}],"stateMutability":"view","type":"function"},{"inputs":[{"internalType":"uint256","name":"","type":"uint256"},{"internalType":"uint256","name":"","type":"uint256"}],"name":"maintenanceRequests","outputs":[{"internalType":"uint256","name":"requestId","type":"uint256"},{"internalType":"string","name":"description","type":"string"},{"internalType":"uint256","name":"timestamp","type":"uint256"},{"internalType":"bool","name":"resolved","type":"bool"},{"internalType":"uint256","name":"cost","type":"uint256"}],"stateMutability":"view","type":"function"},{"inputs":[],"name":"owner","outputs":[{"internalType":"address","name":"","type":"address"}],"stateMutability":"view","type":"function"},{"inputs":[],"name":"pause","outputs":[],"stateMutability":"nonpayable","type":"function"},{"inputs":[],"name":"paused","outputs":[{"internalType":"bool","name":"","type":"bool"}],"stateMutability":"view","type":"function"},{"inputs":[{"internalType":"uint256","name":"_propertyId","type":"uint256"},{"internalType":"address","name":"_paymentToken","type":"address"}],"name":"payRent","outputs":[],"stateMutability":"payable","type":"function"},{"inputs":[{"internalType":"uint256","name":"","type":"uint256"}],"name":"properties","outputs":[{"internalType":"address","name":"owner","type":"address"},{"internalType":"uint256","name":"rentAmount","type":"uint256"},{"internalType":"uint256","name":"securityDeposit","type":"uint256"},{"internalType":"address","name":"currentTenant","type":"address"},{"internalType":"uint256","name":"leaseStart","type":"uint256"},{"internalType":"uint256","name":"leaseEnd","type":"uint256"},{"internalType":"bool","name":"active","type":"bool"},{"internalType":"enum PropertyManager.PropertyStatus","name":"status","type":"uint8"}],"stateMutability":"view","type":"function"},{"inputs":[],"name":"propertyCount","outputs":[{"internalType":"uint256","name":"","type":"uint256"}],"stateMutability":"view","type":"function"},{"inputs":[],"name":"renounceOwnership","outputs":[],"stateMutability":"nonpayable","type":"function"},{"inputs":[{"internalType":"uint256","name":"_propertyId","type":"uint256"},{"internalType":"string","name":"_description","type":"string"}],"name":"requestMaintenance","outputs":[],"stateMutability":"nonpayable","type":"function"},{"inputs":[{"internalType":"uint256","name":"_propertyId","type":"uint256"},{"internalType":"bool","name":"_maintenance","type":"bool"}],"name":"setMaintenanceStatus","outputs":[],"stateMutability":"nonpayable","type":"function"},{"inputs":[{"internalType":"address","name":"_token","type":"address"},{"internalType":"bool","name":"_approved","type":"bool"}],"name":"setPaymentToken","outputs":[],"stateMutability":"nonpayable","type":"function"},{"inputs":[],"name":"testConnection","outputs":[{"internalType":"bool","name":"","type":"bool"}],"stateMutability":"pure","type":"function"},{"inputs":[{"internalType":"address","name":"newOwner","type":"address"}],"name":"transferOwnership","outputs":[],"stateMutability":"nonpayable","type":"function"},{"inputs":[],"name":"unpause","outputs":[],"stateMutability":"nonpayable","type":"function"}],"evm":{"bytecode":{"linkReferences":{},"object":"60806040523480156200001157600080fd5b5033600073ffffffffffffffffffffffffffffffffffffffff168173ffffffffffffffffffffffffffffffffffffffff1603620000885760006040517f1e4fbdf70000000000000000000000000000000000000000000000000000000081526004016200007f9190620001cb565b60405180910390fd5b6200009981620000c260201b60201c565b50600180819055506000600260006101000a81548160ff021916908315150217905550620001e8565b60008060009054906101000a900473ffffffffffffffffffffffffffffffffffffffff169050816000806101000a81548173ffffffffffffffffffffffffffffffffffffffff021916908373ffffffffffffffffffffffffffffffffffffffff1602179055508173ffffffffffffffffffffffffffffffffffffffff168173ffffffffffffffffffffffffffffffffffffffff167f8be0079c531659141344cd1fd0a4f28419497f9722a3daafe3b4186f6b6457e060405160405180910390a35050565b600073ffffffffffffffffffffffffffffffffffffffff82169050919050565b6000620001b38262000186565b9050919050565b620001c581620001a6565b82525050565b6000602082019050620001e26000830184620001ba565b92915050565b612a9780620001f86000396000f3fe6080604052600436106101145760003560e01c80638456cb59116100a0578063b36268bb11610064578063b36268bb14610356578063bd24dd951461037f578063c361a335146103c0578063f2fde38b146103eb578063f7b108081461041457610114565b80638456cb59146102a65780638da5cb5b146102bd57806391ef935c146102e8578063a363f03a14610311578063a4f676721461032d57610114565b80635c975abb116100e75780635c975abb146101c157806366fd7483146101ec578063715018a614610229578063788738951461024057806379f4ffb91461027d57610114565b806303b66f63146101195780633412a15c146101565780633f4ba83a14610181578063430884cf14610198575b600080fd5b34801561012557600080fd5b50610140600480360381019061013b9190611b4c565b610458565b60405161014d9190611b9b565b60405180910390f35b34801561016257600080fd5b5061016b61065e565b6040516101789190611bd1565b60405180910390f35b34801561018d57600080fd5b50610196610667565b005b3480156101a457600080fd5b506101bf60048036038101906101ba9190611c76565b610679565b005b3480156101cd57600080fd5b506101d66106dc565b6040516101e39190611bd1565b60405180910390f35b3480156101f857600080fd5b50610213600480360381019061020e9190611cb6565b6106f3565b6040516102209190611bd1565b60405180910390f35b34801561023557600080fd5b5061023e610713565b005b34801561024c57600080fd5b5061026760048036038101906102629190611ce3565b610727565b6040516102749190611b9b565b60405180910390f35b34801561028957600080fd5b506102a4600480360381019061029f9190611d75565b61073f565b005b3480156102b257600080fd5b506102bb6109a6565b005b3480156102c957600080fd5b506102d26109b8565b6040516102df9190611de4565b60405180910390f35b3480156102f457600080fd5b5061030f600480360381019061030a9190611ce3565b6109e1565b005b61032b60048036038101906103269190611dff565b610c1d565b005b34801561033957600080fd5b50610354600480360381019061034f9190611e3f565b611138565b005b34801561036257600080fd5b5061037d60048036038101906103789190611e7f565b611335565b005b34801561038b57600080fd5b506103a660048036038101906103a19190611b4c565b61161d565b6040516103b7959493929190611f62565b60405180910390f35b3480156103cc57600080fd5b506103d56116f5565b6040516103e29190611b9b565b60405180910390f35b3480156103f757600080fd5b50610412600480360381019061040d9190611cb6565b6116fb565b005b34801561042057600080fd5b5061043b60048036038101906104369190611ce3565b611781565b60405161044f989796959493929190612033565b60405180910390f35b6000610462611823565b60076000815480929190610475906120e0565b91905055506040518061010001604052803373ffffffffffffffffffffffffffffffffffffffff168152602001848152602001838152602001600073ffffffffffffffffffffffffffffffffffffffff1681526020016000815260200160008152602001600115158152602001600060028111156104f6576104f5611fbc565b5b81525060036000600754815260200190815260200160002060008201518160000160006101000a81548173ffffffffffffffffffffffffffffffffffffffff021916908373ffffffffffffffffffffffffffffffffffffffff160217905550602082015181600101556040820151816002015560608201518160030160006101000a81548173ffffffffffffffffffffffffffffffffffffffff021916908373ffffffffffffffffffffffffffffffffffffffff1602179055506080820151816004015560a0820151816005015560c08201518160060160006101000a81548160ff02191690831515021790555060e08201518160060160016101000a81548160ff0219169083600281111561060f5761060e611fbc565b5b02179055509050506007547f23fb658c1698b92f5fe511a079c17ecf7965cbc3f1b873328c67e2c3c0820f1f338560405161064b929190612128565b60405180910390a2600754905092915050565b60006001905090565b61066f611864565b6106776118eb565b565b610681611864565b80600660008473ffffffffffffffffffffffffffffffffffffffff1673ffffffffffffffffffffffffffffffffffffffff16815260200190815260200160002060006101000a81548160ff0219169083151502179055505050565b6000600260009054906101000a900460ff16905090565b60066020528060005260406000206000915054906101000a900460ff1681565b61071b611864565b610725600061194e565b565b60056020528060005260406000206000915090505481565b826003600082815260200190815260200160002060060160009054906101000a900460ff166107a3576040517f08c379a000000000000000000000000000000000000000000000000000000000815260040161079a9061219d565b60405180910390fd5b833373ffffffffffffffffffffffffffffffffffffffff166003600083815260200190815260200160002060030160009054906101000a900473ffffffffffffffffffffffffffffffffffffffff1673ffffffffffffffffffffffffffffffffffffffff1614610848576040517f08c379a000000000000000000000000000000000000000000000000000000000815260040161083f90612209565b60405180910390fd5b610850611823565b6000600560008781526020019081526020016000206000815480929190610876906120e0565b9190505590506040518060a0016040528082815260200186868080601f016020809104026020016040519081016040528093929190818152602001838380828437600081840152601f19601f820116905080830192505050505050508152602001428152602001600015158152602001600081525060046000888152602001908152602001600020600083815260200190815260200160002060008201518160000155602082015181600101908161092e9190612464565b506040820151816002015560608201518160030160006101000a81548160ff02191690831515021790555060808201518160040155905050857f71be2f2ca4fa8a0ac625e3ae5603b2b3c7f16e783a996a734d697c93943b0b7c826040516109969190611b9b565b60405180910390a2505050505050565b6109ae611864565b6109b6611a12565b565b60008060009054906101000a900473ffffffffffffffffffffffffffffffffffffffff16905090565b806003600082815260200190815260200160002060060160009054906101000a900460ff16610a45576040517f08c379a0000000000000000000000000000000000000000000000000000000008152600401610a3c9061219d565b60405180910390fd5b60006003600084815260200190815260200160002090508060000160009054906101000a900473ffffffffffffffffffffffffffffffffffffffff1673ffffffffffffffffffffffffffffffffffffffff163373ffffffffffffffffffffffffffffffffffffffff1614610aee576040517f08c379a0000000000000000000000000000000000000000000000000000000008152600401610ae590612582565b60405180910390fd5b60016002811115610b0257610b01611fbc565b5b8160060160019054906101000a900460ff166002811115610b2657610b25611fbc565b5b14610b66576040517f08c379a0000000000000000000000000000000000000000000000000000000008152600401610b5d906125ee565b60405180910390fd5b60008160060160016101000a81548160ff02191690836002811115610b8e57610b8d611fbc565b5b021790555060008160030160006101000a81548173ffffffffffffffffffffffffffffffffffffffff021916908373ffffffffffffffffffffffffffffffffffffffff1602179055506000816004018190555060008160050181905550827f9bbc71338da3ea3da7477f5960427aa0fe6e98aeced78a369dd1b4357a50b9f160405160405180910390a2505050565b816003600082815260200190815260200160002060060160009054906101000a900460ff16610c81576040517f08c379a0000000000000000000000000000000000000000000000000000000008152600401610c789061219d565b60405180910390fd5b823373ffffffffffffffffffffffffffffffffffffffff166003600083815260200190815260200160002060030160009054906101000a900473ffffffffffffffffffffffffffffffffffffffff1673ffffffffffffffffffffffffffffffffffffffff1614610d26576040517f08c379a0000000000000000000000000000000000000000000000000000000008152600401610d1d90612209565b60405180910390fd5b610d2e611a75565b610d36611823565b600060036000868152602001908152602001600020905060016002811115610d6157610d60611fbc565b5b8160060160019054906101000a900460ff166002811115610d8557610d84611fbc565b5b14610dc5576040517f08c379a0000000000000000000000000000000000000000000000000000000008152600401610dbc906125ee565b60405180910390fd5b8060050154421115610e0c576040517f08c379a0000000000000000000000000000000000000000000000000000000008152600401610e039061265a565b60405180910390fd5b600073ffffffffffffffffffffffffffffffffffffffff168473ffffffffffffffffffffffffffffffffffffffff1603610f5c5780600101543414610e86576040517f08c379a0000000000000000000000000000000000000000000000000000000008152600401610e7d906126c6565b60405180910390fd5b60008160000160009054906101000a900473ffffffffffffffffffffffffffffffffffffffff1673ffffffffffffffffffffffffffffffffffffffff1634604051610ed090612717565b60006040518083038185875af1925050503d8060008114610f0d576040519150601f19603f3d011682016040523d82523d6000602084013e610f12565b606091505b5050905080610f56576040517f08c379a0000000000000000000000000000000000000000000000000000000008152600401610f4d90612778565b60405180910390fd5b506110d6565b600660008573ffffffffffffffffffffffffffffffffffffffff1673ffffffffffffffffffffffffffffffffffffffff16815260200190815260200160002060009054906101000a900460ff16610fe8576040517f08c379a0000000000000000000000000000000000000000000000000000000008152600401610fdf906127e4565b60405180910390fd5b60008490508073ffffffffffffffffffffffffffffffffffffffff166323b872dd338460000160009054906101000a900473ffffffffffffffffffffffffffffffffffffffff1685600101546040518463ffffffff1660e01b815260040161105293929190612804565b6020604051808303816000875af1158015611071573d6000803e3d6000fd5b505050506040513d601f19601f820116820180604052508101906110959190612850565b6110d4576040517f08c379a00000000000000000000000000000000000000000000000000000000081526004016110cb906128c9565b60405180910390fd5b505b3373ffffffffffffffffffffffffffffffffffffffff16857f63e55317e25c0cab3a2de23ee0e244496daea0c1c2b8e272bbc01722b96bb9ae83600101546040516111219190611b9b565b60405180910390a350611132611abb565b50505050565b816003600082815260200190815260200160002060060160009054906101000a900460ff1661119c576040517f08c379a00000000000000000000000000000000000000000000000000000000081526004016111939061219d565b60405180910390fd5b60006003600085815260200190815260200160002090508060000160009054906101000a900473ffffffffffffffffffffffffffffffffffffffff1673ffffffffffffffffffffffffffffffffffffffff163373ffffffffffffffffffffffffffffffffffffffff1614611245576040517f08c379a000000000000000000000000000000000000000000000000000000000815260040161123c90612582565b60405180910390fd5b6001600281111561125957611258611fbc565b5b8160060160019054906101000a900460ff16600281111561127d5761127c611fbc565b5b036112bd576040517f08c379a00000000000000000000000000000000000000000000000000000000081526004016112b490612935565b60405180910390fd5b826112c95760006112cc565b60025b8160060160016101000a81548160ff021916908360028111156112f2576112f1611fbc565b5b0217905550837ffd3de0f8388fd323c0292b2b5f0edb37bdcc9288d68bb4794e9128842caf5110846040516113279190611bd1565b60405180910390a250505050565b826003600082815260200190815260200160002060060160009054906101000a900460ff16611399576040517f08c379a00000000000000000000000000000000000000000000000000000000081526004016113909061219d565b60405180910390fd5b833373ffffffffffffffffffffffffffffffffffffffff166003600083815260200190815260200160002060000160009054906101000a900473ffffffffffffffffffffffffffffffffffffffff1673ffffffffffffffffffffffffffffffffffffffff161461143e576040517f08c379a000000000000000000000000000000000000000000000000000000000815260040161143590612582565b60405180910390fd5b611446611823565b60006003600087815260200190815260200160002090506000600281111561147157611470611fbc565b5b8160060160019054906101000a900460ff16600281111561149557611494611fbc565b5b146114d5576040517f08c379a00000000000000000000000000000000000000000000000000000000081526004016114cc906129a1565b60405180910390fd5b600073ffffffffffffffffffffffffffffffffffffffff168573ffffffffffffffffffffffffffffffffffffffff1603611544576040517f08c379a000000000000000000000000000000000000000000000000000000000815260040161153b90612a0d565b60405180910390fd5b848160030160006101000a81548173ffffffffffffffffffffffffffffffffffffffff021916908373ffffffffffffffffffffffffffffffffffffffff160217905550428160040181905550834261159c9190612a2d565b816005018190555060018160060160016101000a81548160ff021916908360028111156115cc576115cb611fbc565b5b02179055508473ffffffffffffffffffffffffffffffffffffffff16867fcdddd59f4defd19441b2d0ec6bd6998e9f8b815b10fad5db2460b7486c1da96a60405160405180910390a3505050505050565b60046020528160005260406000206020528060005260406000206000915091505080600001549080600101805461165390612287565b80601f016020809104026020016040519081016040528092919081815260200182805461167f90612287565b80156116cc5780601f106116a1576101008083540402835291602001916116cc565b820191906000526020600020905b8154815290600101906020018083116116af57829003601f168201915b5050505050908060020154908060030160009054906101000a900460ff16908060040154905085565b60075481565b611703611864565b600073ffffffffffffffffffffffffffffffffffffffff168173ffffffffffffffffffffffffffffffffffffffff16036117755760006040517f1e4fbdf700000000000000000000000000000000000000000000000000000000815260040161176c9190611de4565b60405180910390fd5b61177e8161194e565b50565b60036020528060005260406000206000915090508060000160009054906101000a900473ffffffffffffffffffffffffffffffffffffffff16908060010154908060020154908060030160009054906101000a900473ffffffffffffffffffffffffffffffffffffffff16908060040154908060050154908060060160009054906101000a900460ff16908060060160019054906101000a900460ff16905088565b61182b6106dc565b15611862576040517fd93c066500000000000000000000000000000000000000000000000000000000815260040160405180910390fd5b565b61186c611ac4565b73ffffffffffffffffffffffffffffffffffffffff1661188a6109b8565b73ffffffffffffffffffffffffffffffffffffffff16146118e9576118ad611ac4565b6040517f118cdaa70000000000000000000000000000000000000000000000000000000081526004016118e09190611de4565b60405180910390fd5b565b6118f3611acc565b6000600260006101000a81548160ff0219169083151502179055507f5db9ee0a495bf2e6ff9c91a7834c1ba4fdd244a5e8aa4e537bd38aeae4b073aa611937611ac4565b6040516119449190611de4565b60405180910390a1565b60008060009054906101000a900473ffffffffffffffffffffffffffffffffffffffff169050816000806101000a81548173ffffffffffffffffffffffffffffffffffffffff021916908373ffffffffffffffffffffffffffffffffffffffff1602179055508173ffffffffffffffffffffffffffffffffffffffff168173ffffffffffffffffffffffffffffffffffffffff167f8be0079c531659141344cd1fd0a4f28419497f9722a3daafe3b4186f6b6457e060405160405180910390a35050565b611a1a611823565b6001600260006101000a81548160ff0219169083151502179055507f62e78cea01bee320cd4e420270b5ea74000d11b0c9f74754ebdbfc544b05a258611a5e611ac4565b604051611a6b9190611de4565b60405180910390a1565b600260015403611ab1576040517f3ee5aeb500000000000000000000000000000000000000000000000000000000815260040160405180910390fd5b6002600181905550565b60018081905550565b600033905090565b611ad46106dc565b611b0a576040517f8dfc202b00000000000000000000000000000000000000000000000000000000815260040160405180910390fd5b565b600080fd5b600080fd5b6000819050919050565b611b2981611b16565b8114611b3457600080fd5b50565b600081359050611b4681611b20565b92915050565b60008060408385031215611b6357611b62611b0c565b5b6000611b7185828601611b37565b9250506020611b8285828601611b37565b9150509250929050565b611b9581611b16565b82525050565b6000602082019050611bb06000830184611b8c565b92915050565b60008115159050919050565b611bcb81611bb6565b82525050565b6000602082019050611be66000830184611bc2565b92915050565b600073ffffffffffffffffffffffffffffffffffffffff82169050919050565b6000611c1782611bec565b9050919050565b611c2781611c0c565b8114611c3257600080fd5b50565b600081359050611c4481611c1e565b92915050565b611c5381611bb6565b8114611c5e57600080fd5b50565b600081359050611c7081611c4a565b92915050565b60008060408385031215611c8d57611c8c611b0c565b5b6000611c9b85828601611c35565b9250506020611cac85828601611c61565b9150509250929050565b600060208284031215611ccc57611ccb611b0c565b5b6000611cda84828501611c35565b91505092915050565b600060208284031215611cf957611cf8611b0c565b5b6000611d0784828501611b37565b91505092915050565b600080fd5b600080fd5b600080fd5b60008083601f840112611d3557611d34611d10565b5b8235905067ffffffffffffffff811115611d5257611d51611d15565b5b602083019150836001820283011115611d6e57611d6d611d1a565b5b9250929050565b600080600060408486031215611d8e57611d8d611b0c565b5b6000611d9c86828701611b37565b935050602084013567ffffffffffffffff811115611dbd57611dbc611b11565b5b611dc986828701611d1f565b92509250509250925092565b611dde81611c0c565b82525050565b6000602082019050611df96000830184611dd5565b92915050565b60008060408385031215611e1657611e15611b0c565b5b6000611e2485828601611b37565b9250506020611e3585828601611c35565b9150509250929050565b60008060408385031215611e5657611e55611b0c565b5b6000611e6485828601611b37565b9250506020611e7585828601611c61565b9150509250929050565b600080600060608486031215611e9857611e97611b0c565b5b6000611ea686828701611b37565b9350506020611eb786828701611c35565b9250506040611ec886828701611b37565b9150509250925092565b600081519050919050565b600082825260208201905092915050565b60005b83811015611f0c578082015181840152602081019050611ef1565b60008484015250505050565b6000601f19601f8301169050919050565b6000611f3482611ed2565b611f3e8185611edd565b9350611f4e818560208601611eee565b611f5781611f18565b840191505092915050565b600060a082019050611f776000830188611b8c565b8181036020830152611f898187611f29565b9050611f986040830186611b8c565b611fa56060830185611bc2565b611fb26080830184611b8c565b9695505050505050565b7f4e487b7100000000000000000000000000000000000000000000000000000000600052602160045260246000fd5b60038110611ffc57611ffb611fbc565b5b50565b600081905061200d82611feb565b919050565b600061201d82611fff565b9050919050565b61202d81612012565b82525050565b600061010082019050612049600083018b611dd5565b612056602083018a611b8c565b6120636040830189611b8c565b6120706060830188611dd5565b61207d6080830187611b8c565b61208a60a0830186611b8c565b61209760c0830185611bc2565b6120a460e0830184612024565b9998505050505050505050565b7f4e487b7100000000000000000000000000000000000000000000000000000000600052601160045260246000fd5b60006120eb82611b16565b91507fffffffffffffffffffffffffffffffffffffffffffffffffffffffffffffffff820361211d5761211c6120b1565b5b600182019050919050565b600060408201905061213d6000830185611dd5565b61214a6020830184611b8c565b9392505050565b7f50726f706572747920646f6573206e6f74206578697374000000000000000000600082015250565b6000612187601783611edd565b915061219282612151565b602082019050919050565b600060208201905081810360008301526121b68161217a565b9050919050565b7f4e6f742063757272656e742074656e616e740000000000000000000000000000600082015250565b60006121f3601283611edd565b91506121fe826121bd565b602082019050919050565b60006020820190508181036000830152612222816121e6565b9050919050565b7f4e487b7100000000000000000000000000000000000000000000000000000000600052604160045260246000fd5b7f4e487b7100000000000000000000000000000000000000000000000000000000600052602260045260246000fd5b6000600282049050600182168061229f57607f821691505b6020821081036122b2576122b1612258565b5b50919050565b60008190508160005260206000209050919050565b60006020601f8301049050919050565b600082821b905092915050565b60006008830261231a7fffffffffffffffffffffffffffffffffffffffffffffffffffffffffffffffff826122dd565b61232486836122dd565b95508019841693508086168417925050509392505050565b6000819050919050565b600061236161235c61235784611b16565b61233c565b611b16565b9050919050565b6000819050919050565b61237b83612346565b61238f61238782612368565b8484546122ea565b825550505050565b600090565b6123a4612397565b6123af818484612372565b505050565b5b818110156123d3576123c860008261239c565b6001810190506123b5565b5050565b601f821115612418576123e9816122b8565b6123f2846122cd565b81016020851015612401578190505b61241561240d856122cd565b8301826123b4565b50505b505050565b600082821c905092915050565b600061243b6000198460080261241d565b1980831691505092915050565b6000612454838361242a565b9150826002028217905092915050565b61246d82611ed2565b67ffffffffffffffff81111561248657612485612229565b5b6124908254612287565b61249b8282856123d7565b600060209050601f8311600181146124ce57600084156124bc578287015190505b6124c68582612448565b86555061252e565b601f1984166124dc866122b8565b60005b82811015612504578489015182556001820191506020850194506020810190506124df565b86831015612521578489015161251d601f89168261242a565b8355505b6001600288020188555050505b505050505050565b7f4e6f742070726f7065727479206f776e65720000000000000000000000000000600082015250565b600061256c601283611edd565b915061257782612536565b602082019050919050565b6000602082019050818103600083015261259b8161255f565b9050919050565b7f50726f7065727479206e6f742072656e74656400000000000000000000000000600082015250565b60006125d8601383611edd565b91506125e3826125a2565b602082019050919050565b60006020820190508181036000830152612607816125cb565b9050919050565b7f4c65617365206578706972656400000000000000000000000000000000000000600082015250565b6000612644600d83611edd565b915061264f8261260e565b602082019050919050565b6000602082019050818103600083015261267381612637565b9050919050565b7f496e636f72726563742072656e7420616d6f756e740000000000000000000000600082015250565b60006126b0601583611edd565b91506126bb8261267a565b602082019050919050565b600060208201905081810360008301526126df816126a3565b9050919050565b600081905092915050565b50565b60006127016000836126e6565b915061270c826126f1565b600082019050919050565b6000612722826126f4565b9150819050919050565b7f5472616e73666572206661696c65640000000000000000000000000000000000600082015250565b6000612762600f83611edd565b915061276d8261272c565b602082019050919050565b6000602082019050818103600083015261279181612755565b9050919050565b7f546f6b656e206e6f7420617070726f7665640000000000000000000000000000600082015250565b60006127ce601283611edd565b91506127d982612798565b602082019050919050565b600060208201905081810360008301526127fd816127c1565b9050919050565b60006060820190506128196000830186611dd5565b6128266020830185611dd5565b6128336040830184611b8c565b949350505050565b60008151905061284a81611c4a565b92915050565b60006020828403121561286657612865611b0c565b5b60006128748482850161283b565b91505092915050565b7f546f6b656e207472616e73666572206661696c65640000000000000000000000600082015250565b60006128b3601583611edd565b91506128be8261287d565b602082019050919050565b600060208201905081810360008301526128e2816128a6565b9050919050565b7f43616e6e6f74206d61696e7461696e2072656e7465642070726f706572747900600082015250565b600061291f601f83611edd565b915061292a826128e9565b602082019050919050565b6000602082019050818103600083015261294e81612912565b9050919050565b7f50726f7065727479206e6f7420617661696c61626c6500000000000000000000600082015250565b600061298b601683611edd565b915061299682612955565b602082019050919050565b600060208201905081810360008301526129ba8161297e565b9050919050565b7f496e76616c69642074656e616e74206164647265737300000000000000000000600082015250565b60006129f7601683611edd565b9150612a02826129c1565b602082019050919050565b60006020820190508181036000830152612a26816129ea565b9050919050565b6000612a3882611b16565b9150612a4383611b16565b9250828201905080821115612a5b57612a5a6120b1565b5b9291505056fea2646970667358221220b8b63f510daccd6130f80012a6440595067b7d19f32a624af60aa2a94db4f31964736f6c63430008140033","opcodes":"PUSH1 0x80 PUSH1 0x40 MSTORE CALLVALUE DUP1 ISZERO PUSH3 0x11 JUMPI PUSH1 0x0 DUP1 REVERT JUMPDEST POP CALLER PUSH1 0x0 PUSH20 0xFFFFFFFFFFFFFFFFFFFFFFFFFFFFFFFFFFFFFFFF AND DUP2 PUSH20 0xFFFFFFFFFFFFFFFFFFFFFFFFFFFFFFFFFFFFFFFF AND SUB PUSH3 0x88 JUMPI PUSH1 0x0 PUSH1 0x40 MLOAD PUSH32 0x1E4FBDF700000000000000000000000000000000000000000000000000000000 DUP2 MSTORE PUSH1 0x4 ADD PUSH3 0x7F SWAP2 SWAP1 PUSH3 0x1CB JUMP JUMPDEST PUSH1 0x40 MLOAD DUP1 SWAP2 SUB SWAP1 REVERT JUMPDEST PUSH3 0x99 DUP2 PUSH3 0xC2 PUSH1 0x20 SHL PUSH1 0x20 SHR JUMP JUMPDEST POP PUSH1 0x1 DUP1 DUP2 SWAP1 SSTORE POP PUSH1 0x0 PUSH1 0x2 PUSH1 0x0 PUSH2 0x100 EXP DUP2 SLOAD DUP2 PUSH1 0xFF MUL NOT AND SWAP1 DUP4 ISZERO ISZERO MUL OR SWAP1 SSTORE POP PUSH3 0x1E8 JUMP JUMPDEST PUSH1 0x0 DUP1 PUSH1 0x0 SWAP1 SLOAD SWAP1 PUSH2 0x100 EXP SWAP1 DIV PUSH20 0xFFFFFFFFFFFFFFFFFFFFFFFFFFFFFFFFFFFFFFFF AND SWAP1 POP DUP2 PUSH1 0x0 DUP1 PUSH2 0x100 EXP DUP2 SLOAD DUP2 PUSH20 0xFFFFFFFFFFFFFFFFFFFFFFFFFFFFFFFFFFFFFFFF MUL NOT AND SWAP1 DUP4 PUSH20 0xFFFFFFFFFFFFFFFFFFFFFFFFFFFFFFFFFFFFFFFF AND MUL OR SWAP1 SSTORE POP DUP2 PUSH20 0xFFFFFFFFFFFFFFFFFFFFFFFFFFFFFFFFFFFFFFFF AND DUP2 PUSH20 0xFFFFFFFFFFFFFFFFFFFFFFFFFFFFFFFFFFFFFFFF AND PUSH32 0x8BE0079C531659141344CD1FD0A4F28419497F9722A3DAAFE3B4186F6B6457E0 PUSH1 0x40 MLOAD PUSH1 0x40 MLOAD DUP1 SWAP2 SUB SWAP1 LOG3 POP POP JUMP JUMPDEST PUSH1 0x0 PUSH20 0xFFFFFFFFFFFFFFFFFFFFFFFFFFFFFFFFFFFFFFFF DUP3 AND SWAP1 POP SWAP2 SWAP1 POP JUMP JUMPDEST PUSH1 0x0 PUSH3 0x1B3 DUP3 PUSH3 0x186 JUMP JUMPDEST SWAP1 POP SWAP2 SWAP1 POP JUMP JUMPDEST PUSH3 0x1C5 DUP2 PUSH3 0x1A6 JUMP JUMPDEST DUP3 MSTORE POP POP JUMP JUMPDEST PUSH1 0x0 PUSH1 0x20 DUP3 ADD SWAP1 POP PUSH3 0x1E2 PUSH1 0x0 DUP4 ADD DUP5 PUSH3 0x1BA JUMP JUMPDEST SWAP3 SWAP2 POP POP JUMP JUMPDEST PUSH2 0x2A97 DUP1 PUSH3 0x1F8 PUSH1 0x0 CODECOPY PUSH1 0x0 RETURN INVALID PUSH1 0x80 PUSH1 0x40 MSTORE PUSH1 0x4 CALLDATASIZE LT PUSH2 0x114 JUMPI PUSH1 0x0 CALLDATALOAD PUSH1 0xE0 SHR DUP1 PUSH4 0x8456CB59 GT PUSH2 0xA0 JUMPI DUP1 PUSH4 0xB36268BB GT PUSH2 0x64 JUMPI DUP1 PUSH4 0xB36268BB EQ PUSH2 0x356 JUMPI DUP1 PUSH4 0xBD24DD95 EQ PUSH2 0x37F JUMPI DUP1 PUSH4 0xC361A335 EQ PUSH2 0x3C0 JUMPI DUP1 PUSH4 0xF2FDE38B EQ PUSH2 0x3EB JUMPI DUP1 PUSH4 0xF7B10808 EQ PUSH2 0x414 JUMPI PUSH2 0x114 JUMP JUMPDEST DUP1 PUSH4 0x8456CB59 EQ PUSH2 0x2A6 JUMPI DUP1 PUSH4 0x8DA5CB5B EQ PUSH2 0x2BD JUMPI DUP1 PUSH4 0x91EF935C EQ PUSH2 0x2E8 JUMPI DUP1 PUSH4 0xA363F03A EQ PUSH2 0x311 JUMPI DUP1 PUSH4 0xA4F67672 EQ PUSH2 0x32D JUMPI PUSH2 0x114 JUMP JUMPDEST DUP1 PUSH4 0x5C975ABB GT PUSH2 0xE7 JUMPI DUP1 PUSH4 0x5C975ABB EQ PUSH2 0x1C1 JUMPI DUP1 PUSH4 0x66FD7483 EQ PUSH2 0x1EC JUMPI DUP1 PUSH4 0x715018A6 EQ PUSH2 0x229 JUMPI DUP1 PUSH4 0x78873895 EQ PUSH2 0x240 JUMPI DUP1 PUSH4 0x79F4FFB9 EQ PUSH2 0x27D JUMPI PUSH2 0x114 JUMP JUMPDEST DUP1 PUSH4 0x3B66F63 EQ PUSH2 0x119 JUMPI DUP1 PUSH4 0x3412A15C EQ PUSH2 0x156 JUMPI DUP1 PUSH4 0x3F4BA83A EQ PUSH2 0x181 JUMPI DUP1 PUSH4 0x430884CF EQ PUSH2 0x198 JUMPI JUMPDEST PUSH1 0x0 DUP1 REVERT JUMPDEST CALLVALUE DUP1 ISZERO PUSH2 0x125 JUMPI PUSH1 0x0 DUP1 REVERT JUMPDEST POP PUSH2 0x140 PUSH1 0x4 DUP1 CALLDATASIZE SUB DUP2 ADD SWAP1 PUSH2 0x13B SWAP2 SWAP1 PUSH2 0x1B4C JUMP JUMPDEST PUSH2 0x458 JUMP JUMPDEST PUSH1 0x40 MLOAD PUSH2 0x14D SWAP2 SWAP1 PUSH2 0x1B9B JUMP JUMPDEST PUSH1 0x40 MLOAD DUP1 SWAP2 SUB SWAP1 RETURN JUMPDEST CALLVALUE DUP1 ISZERO PUSH2 0x162 JUMPI PUSH1 0x0 DUP1 REVERT JUMPDEST POP PUSH2 0x16B PUSH2 0x65E JUMP JUMPDEST PUSH1 0x40 MLOAD PUSH2 0x178 SWAP2 SWAP1 PUSH2 0x1BD1 JUMP JUMPDEST PUSH1 0x40 MLOAD DUP1 SWAP2 SUB SWAP1 RETURN JUMPDEST CALLVALUE DUP1 ISZERO PUSH2 0x18D JUMPI PUSH1 0x0 DUP1 REVERT JUMPDEST POP PUSH2 0x196 PUSH2 0x667 JUMP JUMPDEST STOP JUMPDEST CALLVALUE DUP1 ISZERO PUSH2 0x1A4 JUMPI PUSH1 0x0 DUP1 REVERT JUMPDEST POP PUSH2 0x1BF PUSH1 0x4 DUP1 CALLDATASIZE SUB DUP2 ADD SWAP1 PUSH2 0x1BA SWAP2 SWAP1 PUSH2 0x1C76 JUMP JUMPDEST PUSH2 0x679 JUMP JUMPDEST STOP JUMPDEST CALLVALUE DUP1 ISZERO PUSH2 0x1CD JUMPI PUSH1 0x0 DUP1 REVERT JUMPDEST POP PUSH2 0x1D6 PUSH2 0x6DC JUMP JUMPDEST PUSH1 0x40 MLOAD PUSH2 0x1E3 SWAP2 SWAP1 PUSH2 0x1BD1 JUMP JUMPDEST PUSH1 0x40 MLOAD DUP1 SWAP2 SUB SWAP1 RETURN JUMPDEST CALLVALUE DUP1 ISZERO PUSH2 0x1F8 JUMPI PUSH1 0x0 DUP1 REVERT JUMPDEST POP PUSH2 0x213 PUSH1 0x4 DUP1 CALLDATASIZE SUB DUP2 ADD SWAP1 PUSH2 0x20E SWAP2 SWAP1 PUSH2 0x1CB6 JUMP JUMPDEST PUSH2 0x6F3 JUMP JUMPDEST PUSH1 0x40 MLOAD PUSH2 0x220 SWAP2 SWAP1 PUSH2 0x1BD1 JUMP JUMPDEST PUSH1 0x40 MLOAD DUP1 SWAP2 SUB SWAP1 RETURN JUMPDEST CALLVALUE DUP1 ISZERO PUSH2 0x235 JUMPI PUSH1 0x0 DUP1 REVERT JUMPDEST POP PUSH2 0x23E PUSH2 0x713 JUMP JUMPDEST STOP JUMPDEST CALLVALUE DUP1 ISZERO PUSH2 0x24C JUMPI PUSH1 0x0 DUP1 REVERT JUMPDEST POP PUSH2 0x267 PUSH1 0x4 DUP1 CALLDATASIZE SUB DUP2 ADD SWAP1 PUSH2 0x262 SWAP2 SWAP1 PUSH2 0x1CE3 JUMP JUMPDEST PUSH2 0x727 JUMP JUMPDEST PUSH1 0x40 MLOAD PUSH2 0x274 SWAP2 SWAP1 PUSH2 0x1B9B JUMP JUMPDEST PUSH1 0x40 MLOAD DUP1 SWAP2 SUB SWAP1 RETURN JUMPDEST CALLVALUE DUP1 ISZERO PUSH2 0x289 JUMPI PUSH1 0x0 DUP1 REVERT JUMPDEST POP PUSH2 0x2A4 PUSH1 0x4 DUP1 CALLDATASIZE SUB DUP2 ADD SWAP1 PUSH2 0x29F SWAP2 SWAP1 PUSH2 0x1D75 JUMP JUMPDEST PUSH2 0x73F JUMP JUMPDEST STOP JUMPDEST CALLVALUE DUP1 ISZERO PUSH2 0x2B2 JUMPI PUSH1 0x0 DUP1 REVERT JUMPDEST POP PUSH2 0x2BB PUSH2 0x9A6 JUMP JUMPDEST STOP JUMPDEST CALLVALUE DUP1 ISZERO PUSH2 0x2C9 JUMPI PUSH1 0x0 DUP1 REVERT JUMPDEST POP PUSH2 0x2D2 PUSH2 0x9B8 JUMP JUMPDEST PUSH1 0x40 MLOAD PUSH2 0x2DF SWAP2 SWAP1 PUSH2 0x1DE4 JUMP JUMPDEST PUSH1 0x40 MLOAD DUP1 SWAP2 SUB SWAP1 RETURN JUMPDEST CALLVALUE DUP1 ISZERO PUSH2 0x2F4 JUMPI PUSH1 0x0 DUP1 REVERT JUMPDEST POP PUSH2 0x30F PUSH1 0x4 DUP1 CALLDATASIZE SUB DUP2 ADD SWAP1 PUSH2 0x30A SWAP2 SWAP1 PUSH2 0x1CE3 JUMP JUMPDEST PUSH2 0x9E1 JUMP JUMPDEST STOP JUMPDEST PUSH2 0x32B PUSH1 0x4 DUP1 CALLDATASIZE SUB DUP2 ADD SWAP1 PUSH2 0x326 SWAP2 SWAP1 PUSH2 0x1DFF JUMP JUMPDEST PUSH2 0xC1D JUMP JUMPDEST STOP JUMPDEST CALLVALUE DUP1 ISZERO PUSH2 0x339 JUMPI PUSH1 0x0 DUP1 REVERT JUMPDEST POP PUSH2 0x354 PUSH1 0x4 DUP1 CALLDATASIZE SUB DUP2 ADD SWAP1 PUSH2 0x34F SWAP2 SWAP1 PUSH2 0x1E3F JUMP JUMPDEST PUSH2 0x1138 JUMP JUMPDEST STOP JUMPDEST CALLVALUE DUP1 ISZERO PUSH2 0x362 JUMPI PUSH1 0x0 DUP1 REVERT JUMPDEST POP PUSH2 0x37D PUSH1 0x4 DUP1 CALLDATASIZE SUB DUP2 ADD SWAP1 PUSH2 0x378 SWAP2 SWAP1 PUSH2 0x1E7F JUMP JUMPDEST PUSH2 0x1335 JUMP JUMPDEST STOP JUMPDEST CALLVALUE DUP1 ISZERO PUSH2 0x38B JUMPI PUSH1 0x0 DUP1 REVERT JUMPDEST POP PUSH2 0x3A6 PUSH1 0x4 DUP1 CALLDATASIZE SUB DUP2 ADD SWAP1 PUSH2 0x3A1 SWAP2 SWAP1 PUSH2 0x1B4C JUMP JUMPDEST PUSH2 0x161D JUMP JUMPDEST PUSH1 0x40 MLOAD PUSH2 0x3B7 SWAP6 SWAP5 SWAP4 SWAP3 SWAP2 SWAP1 PUSH2 0x1F62 JUMP JUMPDEST PUSH1 0x40 MLOAD DUP1 SWAP2 SUB SWAP1 RETURN JUMPDEST CALLVALUE DUP1 ISZERO PUSH2 0x3CC JUMPI PUSH1 0x0 DUP1 REVERT JUMPDEST POP PUSH2 0x3D5 PUSH2 0x16F5 JUMP JUMPDEST PUSH1 0x40 MLOAD PUSH2 0x3E2 SWAP2 SWAP1 PUSH2 0x1B9B JUMP JUMPDEST PUSH1 0x40 MLOAD DUP1 SWAP2 SUB SWAP1 RETURN JUMPDEST CALLVALUE DUP1 ISZERO PUSH2 0x3F7 JUMPI PUSH1 0x0 DUP1 REVERT JUMPDEST POP PUSH2 0x412 PUSH1 0x4 DUP1 CALLDATASIZE SUB DUP2 ADD SWAP1 PUSH2 0x40D SWAP2 SWAP1 PUSH2 0x1CB6 JUMP JUMPDEST PUSH2 0x16FB JUMP JUMPDEST STOP JUMPDEST CALLVALUE DUP1 ISZERO PUSH2 0x420 JUMPI PUSH1 0x0 DUP1 REVERT JUMPDEST POP PUSH2 0x43B PUSH1 0x4 DUP1 CALLDATASIZE SUB DUP2 ADD SWAP1 PUSH2 0x436 SWAP2 SWAP1 PUSH2 0x1CE3 JUMP JUMPDEST PUSH2 0x1781 JUMP JUMPDEST PUSH1 0x40 MLOAD PUSH2 0x44F SWAP9 SWAP8 SWAP7 SWAP6 SWAP5 SWAP4 SWAP3 SWAP2 SWAP1 PUSH2 0x2033 JUMP JUMPDEST PUSH1 0x40 MLOAD DUP1 SWAP2 SUB SWAP1 RETURN JUMPDEST PUSH1 0x0 PUSH2 0x462 PUSH2 0x1823 JUMP JUMPDEST PUSH1 0x7 PUSH1 0x0 DUP2 SLOAD DUP1 SWAP3 SWAP2 SWAP1 PUSH2 0x475 SWAP1 PUSH2 0x20E0 JUMP JUMPDEST SWAP2 SWAP1 POP SSTORE POP PUSH1 0x40 MLOAD DUP1 PUSH2 0x100 ADD PUSH1 0x40 MSTORE DUP1 CALLER PUSH20 0xFFFFFFFFFFFFFFFFFFFFFFFFFFFFFFFFFFFFFFFF AND DUP2 MSTORE PUSH1 0x20 ADD DUP5 DUP2 MSTORE PUSH1 0x20 ADD DUP4 DUP2 MSTORE PUSH1 0x20 ADD PUSH1 0x0 PUSH20 0xFFFFFFFFFFFFFFFFFFFFFFFFFFFFFFFFFFFFFFFF AND DUP2 MSTORE PUSH1 0x20 ADD PUSH1 0x0 DUP2 MSTORE PUSH1 0x20 ADD PUSH1 0x0 DUP2 MSTORE PUSH1 0x20 ADD PUSH1 0x1 ISZERO ISZERO DUP2 MSTORE PUSH1 0x20 ADD PUSH1 0x0 PUSH1 0x2 DUP2 GT ISZERO PUSH2 0x4F6 JUMPI PUSH2 0x4F5 PUSH2 0x1FBC JUMP JUMPDEST JUMPDEST DUP2 MSTORE POP PUSH1 0x3 PUSH1 0x0 PUSH1 0x7 SLOAD DUP2 MSTORE PUSH1 0x20 ADD SWAP1 DUP2 MSTORE PUSH1 0x20 ADD PUSH1 0x0 KECCAK256 PUSH1 0x0 DUP3 ADD MLOAD DUP2 PUSH1 0x0 ADD PUSH1 0x0 PUSH2 0x100 EXP DUP2 SLOAD DUP2 PUSH20 0xFFFFFFFFFFFFFFFFFFFFFFFFFFFFFFFFFFFFFFFF MUL NOT AND SWAP1 DUP4 PUSH20 0xFFFFFFFFFFFFFFFFFFFFFFFFFFFFFFFFFFFFFFFF AND MUL OR SWAP1 SSTORE POP PUSH1 0x20 DUP3 ADD MLOAD DUP2 PUSH1 0x1 ADD SSTORE PUSH1 0x40 DUP3 ADD MLOAD DUP2 PUSH1 0x2 ADD SSTORE PUSH1 0x60 DUP3 ADD MLOAD DUP2 PUSH1 0x3 ADD PUSH1 0x0 PUSH2 0x100 EXP DUP2 SLOAD DUP2 PUSH20 0xFFFFFFFFFFFFFFFFFFFFFFFFFFFFFFFFFFFFFFFF MUL NOT AND SWAP1 DUP4 PUSH20 0xFFFFFFFFFFFFFFFFFFFFFFFFFFFFFFFFFFFFFFFF AND MUL OR SWAP1 SSTORE POP PUSH1 0x80 DUP3 ADD MLOAD DUP2 PUSH1 0x4 ADD SSTORE PUSH1 0xA0 DUP3 ADD MLOAD DUP2 PUSH1 0x5 ADD SSTORE PUSH1 0xC0 DUP3 ADD MLOAD DUP2 PUSH1 0x6 ADD PUSH1 0x0 PUSH2 0x100 EXP DUP2 SLOAD DUP2 PUSH1 0xFF MUL NOT AND SWAP1 DUP4 ISZERO ISZERO MUL OR SWAP1 SSTORE POP PUSH1 0xE0 DUP3 ADD MLOAD DUP2 PUSH1 0x6 ADD PUSH1 0x1 PUSH2 0x100 EXP DUP2 SLOAD DUP2 PUSH1 0xFF MUL NOT AND SWAP1 DUP4 PUSH1 0x2 DUP2 GT ISZERO PUSH2 0x60F JUMPI PUSH2 0x60E PUSH2 0x1FBC JUMP JUMPDEST JUMPDEST MUL OR SWAP1 SSTORE POP SWAP1 POP POP PUSH1 0x7 SLOAD PUSH32 0x23FB658C1698B92F5FE511A079C17ECF7965CBC3F1B873328C67E2C3C0820F1F CALLER DUP6 PUSH1 0x40 MLOAD PUSH2 0x64B SWAP3 SWAP2 SWAP1 PUSH2 0x2128 JUMP JUMPDEST PUSH1 0x40 MLOAD DUP1 SWAP2 SUB SWAP1 LOG2 PUSH1 0x7 SLOAD SWAP1 POP SWAP3 SWAP2 POP POP JUMP JUMPDEST PUSH1 0x0 PUSH1 0x1 SWAP1 POP SWAP1 JUMP JUMPDEST PUSH2 0x66F PUSH2 0x1864 JUMP JUMPDEST PUSH2 0x677 PUSH2 0x18EB JUMP JUMPDEST JUMP JUMPDEST PUSH2 0x681 PUSH2 0x1864 JUMP JUMPDEST DUP1 PUSH1 0x6 PUSH1 0x0 DUP5 PUSH20 0xFFFFFFFFFFFFFFFFFFFFFFFFFFFFFFFFFFFFFFFF AND PUSH20 0xFFFFFFFFFFFFFFFFFFFFFFFFFFFFFFFFFFFFFFFF AND DUP2 MSTORE PUSH1 0x20 ADD SWAP1 DUP2 MSTORE PUSH1 0x20 ADD PUSH1 0x0 KECCAK256 PUSH1 0x0 PUSH2 0x100 EXP DUP2 SLOAD DUP2 PUSH1 0xFF MUL NOT AND SWAP1 DUP4 ISZERO ISZERO MUL OR SWAP1 SSTORE POP POP POP JUMP JUMPDEST PUSH1 0x0 PUSH1 0x2 PUSH1 0x0 SWAP1 SLOAD SWAP1 PUSH2 0x100 EXP SWAP1 DIV PUSH1 0xFF AND SWAP1 POP SWAP1 JUMP JUMPDEST PUSH1 0x6 PUSH1 0x20 MSTORE DUP1 PUSH1 0x0 MSTORE PUSH1 0x40 PUSH1 0x0 KECCAK256 PUSH1 0x0 SWAP2 POP SLOAD SWAP1 PUSH2 0x100 EXP SWAP1 DIV PUSH1 0xFF AND DUP2 JUMP JUMPDEST PUSH2 0x71B PUSH2 0x1864 JUMP JUMPDEST PUSH2 0x725 PUSH1 0x0 PUSH2 0x194E JUMP JUMPDEST JUMP JUMPDEST PUSH1 0x5 PUSH1 0x20 MSTORE DUP1 PUSH1 0x0 MSTORE PUSH1 0x40 PUSH1 0x0 KECCAK256 PUSH1 0x0 SWAP2 POP SWAP1 POP SLOAD DUP2 JUMP JUMPDEST DUP3 PUSH1 0x3 PUSH1 0x0 DUP3 DUP2 MSTORE PUSH1 0x20 ADD SWAP1 DUP2 MSTORE PUSH1 0x20 ADD PUSH1 0x0 KECCAK256 PUSH1 0x6 ADD PUSH1 0x0 SWAP1 SLOAD SWAP1 PUSH2 0x100 EXP SWAP1 DIV PUSH1 0xFF AND PUSH2 0x7A3 JUMPI PUSH1 0x40 MLOAD PUSH32 0x8C379A000000000000000000000000000000000000000000000000000000000 DUP2 MSTORE PUSH1 0x4 ADD PUSH2 0x79A SWAP1 PUSH2 0x219D JUMP JUMPDEST PUSH1 0x40 MLOAD DUP1 SWAP2 SUB SWAP1 REVERT JUMPDEST DUP4 CALLER PUSH20 0xFFFFFFFFFFFFFFFFFFFFFFFFFFFFFFFFFFFFFFFF AND PUSH1 0x3 PUSH1 0x0 DUP4 DUP2 MSTORE PUSH1 0x20 ADD SWAP1 DUP2 MSTORE PUSH1 0x20 ADD PUSH1 0x0 KECCAK256 PUSH1 0x3 ADD PUSH1 0x0 SWAP1 SLOAD SWAP1 PUSH2 0x100 EXP SWAP1 DIV PUSH20 0xFFFFFFFFFFFFFFFFFFFFFFFFFFFFFFFFFFFFFFFF AND PUSH20 0xFFFFFFFFFFFFFFFFFFFFFFFFFFFFFFFFFFFFFFFF AND EQ PUSH2 0x848 JUMPI PUSH1 0x40 MLOAD PUSH32 0x8C379A000000000000000000000000000000000000000000000000000000000 DUP2 MSTORE PUSH1 0x4 ADD PUSH2 0x83F SWAP1 PUSH2 0x2209 JUMP JUMPDEST PUSH1 0x40 MLOAD DUP1 SWAP2 SUB SWAP1 REVERT JUMPDEST PUSH2 0x850 PUSH2 0x1823 JUMP JUMPDEST PUSH1 0x0 PUSH1 0x5 PUSH1 0x0 DUP8 DUP2 MSTORE PUSH1 0x20 ADD SWAP1 DUP2 MSTORE PUSH1 0x20 ADD PUSH1 0x0 KECCAK256 PUSH1 0x0 DUP2 SLOAD DUP1 SWAP3 SWAP2 SWAP1 PUSH2 0x876 SWAP1 PUSH2 0x20E0 JUMP JUMPDEST SWAP2 SWAP1 POP SSTORE SWAP1 POP PUSH1 0x40 MLOAD DUP1 PUSH1 0xA0 ADD PUSH1 0x40 MSTORE DUP1 DUP3 DUP2 MSTORE PUSH1 0x20 ADD DUP7 DUP7 DUP1 DUP1 PUSH1 0x1F ADD PUSH1 0x20 DUP1 SWAP2 DIV MUL PUSH1 0x20 ADD PUSH1 0x40 MLOAD SWAP1 DUP2 ADD PUSH1 0x40 MSTORE DUP1 SWAP4 SWAP3 SWAP2 SWAP1 DUP2 DUP2 MSTORE PUSH1 0x20 ADD DUP4 DUP4 DUP1 DUP3 DUP5 CALLDATACOPY PUSH1 0x0 DUP2 DUP5 ADD MSTORE PUSH1 0x1F NOT PUSH1 0x1F DUP3 ADD AND SWAP1 POP DUP1 DUP4 ADD SWAP3 POP POP POP POP POP POP POP DUP2 MSTORE PUSH1 0x20 ADD TIMESTAMP DUP2 MSTORE PUSH1 0x20 ADD PUSH1 0x0 ISZERO ISZERO DUP2 MSTORE PUSH1 0x20 ADD PUSH1 0x0 DUP2 MSTORE POP PUSH1 0x4 PUSH1 0x0 DUP9 DUP2 MSTORE PUSH1 0x20 ADD SWAP1 DUP2 MSTORE PUSH1 0x20 ADD PUSH1 0x0 KECCAK256 PUSH1 0x0 DUP4 DUP2 MSTORE PUSH1 0x20 ADD SWAP1 DUP2 MSTORE PUSH1 0x20 ADD PUSH1 0x0 KECCAK256 PUSH1 0x0 DUP3 ADD MLOAD DUP2 PUSH1 0x0 ADD SSTORE PUSH1 0x20 DUP3 ADD MLOAD DUP2 PUSH1 0x1 ADD SWAP1 DUP2 PUSH2 0x92E SWAP2 SWAP1 PUSH2 0x2464 JUMP JUMPDEST POP PUSH1 0x40 DUP3 ADD MLOAD DUP2 PUSH1 0x2 ADD SSTORE PUSH1 0x60 DUP3 ADD MLOAD DUP2 PUSH1 0x3 ADD PUSH1 0x0 PUSH2 0x100 EXP DUP2 SLOAD DUP2 PUSH1 0xFF MUL NOT AND SWAP1 DUP4 ISZERO ISZERO MUL OR SWAP1 SSTORE POP PUSH1 0x80 DUP3 ADD MLOAD DUP2 PUSH1 0x4 ADD SSTORE SWAP1 POP POP DUP6 PUSH32 0x71BE2F2CA4FA8A0AC625E3AE5603B2B3C7F16E783A996A734D697C93943B0B7C DUP3 PUSH1 0x40 MLOAD PUSH2 0x996 SWAP2 SWAP1 PUSH2 0x1B9B JUMP JUMPDEST PUSH1 0x40 MLOAD DUP1 SWAP2 SUB SWAP1 LOG2 POP POP POP POP POP POP JUMP JUMPDEST PUSH2 0x9AE PUSH2 0x1864 JUMP JUMPDEST PUSH2 0x9B6 PUSH2 0x1A12 JUMP JUMPDEST JUMP JUMPDEST PUSH1 0x0 DUP1 PUSH1 0x0 SWAP1 SLOAD SWAP1 PUSH2 0x100 EXP SWAP1 DIV PUSH20 0xFFFFFFFFFFFFFFFFFFFFFFFFFFFFFFFFFFFFFFFF AND SWAP1 POP SWAP1 JUMP JUMPDEST DUP1 PUSH1 0x3 PUSH1 0x0 DUP3 DUP2 MSTORE PUSH1 0x20 ADD SWAP1 DUP2 MSTORE PUSH1 0x20 ADD PUSH1 0x0 KECCAK256 PUSH1 0x6 ADD PUSH1 0x0 SWAP1 SLOAD SWAP1 PUSH2 0x100 EXP SWAP1 DIV PUSH1 0xFF AND PUSH2 0xA45 JUMPI PUSH1 0x40 MLOAD PUSH32 0x8C379A000000000000000000000000000000000000000000000000000000000 DUP2 MSTORE PUSH1 0x4 ADD PUSH2 0xA3C SWAP1 PUSH2 0x219D JUMP JUMPDEST PUSH1 0x40 MLOAD DUP1 SWAP2 SUB SWAP1 REVERT JUMPDEST PUSH1 0x0 PUSH1 0x3 PUSH1 0x0 DUP5 DUP2 MSTORE PUSH1 0x20 ADD SWAP1 DUP2 MSTORE PUSH1 0x20 ADD PUSH1 0x0 KECCAK256 SWAP1 POP DUP1 PUSH1 0x0 ADD PUSH1 0x0 SWAP1 SLOAD SWAP1 PUSH2 0x100 EXP SWAP1 DIV PUSH20 0xFFFFFFFFFFFFFFFFFFFFFFFFFFFFFFFFFFFFFFFF AND PUSH20 0xFFFFFFFFFFFFFFFFFFFFFFFFFFFFFFFFFFFFFFFF AND CALLER PUSH20 0xFFFFFFFFFFFFFFFFFFFFFFFFFFFFFFFFFFFFFFFF AND EQ PUSH2 0xAEE JUMPI PUSH1 0x40 MLOAD PUSH32 0x8C379A000000000000000000000000000000000000000000000000000000000 DUP2 MSTORE PUSH1 0x4 ADD PUSH2 0xAE5 SWAP1 PUSH2 0x2582 JUMP JUMPDEST PUSH1 0x40 MLOAD DUP1 SWAP2 SUB SWAP1 REVERT JUMPDEST PUSH1 0x1 PUSH1 0x2 DUP2 GT ISZERO PUSH2 0xB02 JUMPI PUSH2 0xB01 PUSH2 0x1FBC JUMP JUMPDEST JUMPDEST DUP2 PUSH1 0x6 ADD PUSH1 0x1 SWAP1 SLOAD SWAP1 PUSH2 0x100 EXP SWAP1 DIV PUSH1 0xFF AND PUSH1 0x2 DUP2 GT ISZERO PUSH2 0xB26 JUMPI PUSH2 0xB25 PUSH2 0x1FBC JUMP JUMPDEST JUMPDEST EQ PUSH2 0xB66 JUMPI PUSH1 0x40 MLOAD PUSH32 0x8C379A000000000000000000000000000000000000000000000000000000000 DUP2 MSTORE PUSH1 0x4 ADD PUSH2 0xB5D SWAP1 PUSH2 0x25EE JUMP JUMPDEST PUSH1 0x40 MLOAD DUP1 SWAP2 SUB SWAP1 REVERT JUMPDEST PUSH1 0x0 DUP2 PUSH1 0x6 ADD PUSH1 0x1 PUSH2 0x100 EXP DUP2 SLOAD DUP2 PUSH1 0xFF MUL NOT AND SWAP1 DUP4 PUSH1 0x2 DUP2 GT ISZERO PUSH2 0xB8E JUMPI PUSH2 0xB8D PUSH2 0x1FBC JUMP JUMPDEST JUMPDEST MUL OR SWAP1 SSTORE POP PUSH1 0x0 DUP2 PUSH1 0x3 ADD PUSH1 0x0 PUSH2 0x100 EXP DUP2 SLOAD DUP2 PUSH20 0xFFFFFFFFFFFFFFFFFFFFFFFFFFFFFFFFFFFFFFFF MUL NOT AND SWAP1 DUP4 PUSH20 0xFFFFFFFFFFFFFFFFFFFFFFFFFFFFFFFFFFFFFFFF AND MUL OR SWAP1 SSTORE POP PUSH1 0x0 DUP2 PUSH1 0x4 ADD DUP2 SWAP1 SSTORE POP PUSH1 0x0 DUP2 PUSH1 0x5 ADD DUP2 SWAP1 SSTORE POP DUP3 PUSH32 0x9BBC71338DA3EA3DA7477F5960427AA0FE6E98AECED78A369DD1B4357A50B9F1 PUSH1 0x40 MLOAD PUSH1 0x40 MLOAD DUP1 SWAP2 SUB SWAP1 LOG2 POP POP POP JUMP JUMPDEST DUP2 PUSH1 0x3 PUSH1 0x0 DUP3 DUP2 MSTORE PUSH1 0x20 ADD SWAP1 DUP2 MSTORE PUSH1 0x20 ADD PUSH1 0x0 KECCAK256 PUSH1 0x6 ADD PUSH1 0x0 SWAP1 SLOAD SWAP1 PUSH2 0x100 EXP SWAP1 DIV PUSH1 0xFF AND PUSH2 0xC81 JUMPI PUSH1 0x40 MLOAD PUSH32 0x8C379A000000000000000000000000000000000000000000000000000000000 DUP2 MSTORE PUSH1 0x4 ADD PUSH2 0xC78 SWAP1 PUSH2 0x219D JUMP JUMPDEST PUSH1 0x40 MLOAD DUP1 SWAP2 SUB SWAP1 REVERT JUMPDEST DUP3 CALLER PUSH20 0xFFFFFFFFFFFFFFFFFFFFFFFFFFFFFFFFFFFFFFFF AND PUSH1 0x3 PUSH1 0x0 DUP4 DUP2 MSTORE PUSH1 0x20 ADD SWAP1 DUP2 MSTORE PUSH1 0x20 ADD PUSH1 0x0 KECCAK256 PUSH1 0x3 ADD PUSH1 0x0 SWAP1 SLOAD SWAP1 PUSH2 0x100 EXP SWAP1 DIV PUSH20 0xFFFFFFFFFFFFFFFFFFFFFFFFFFFFFFFFFFFFFFFF AND PUSH20 0xFFFFFFFFFFFFFFFFFFFFFFFFFFFFFFFFFFFFFFFF AND EQ PUSH2 0xD26 JUMPI PUSH1 0x40 MLOAD PUSH32 0x8C379A000000000000000000000000000000000000000000000000000000000 DUP2 MSTORE PUSH1 0x4 ADD PUSH2 0xD1D SWAP1 PUSH2 0x2209 JUMP JUMPDEST PUSH1 0x40 MLOAD DUP1 SWAP2 SUB SWAP1 REVERT JUMPDEST PUSH2 0xD2E PUSH2 0x1A75 JUMP JUMPDEST PUSH2 0xD36 PUSH2 0x1823 JUMP JUMPDEST PUSH1 0x0 PUSH1 0x3 PUSH1 0x0 DUP7 DUP2 MSTORE PUSH1 0x20 ADD SWAP1 DUP2 MSTORE PUSH1 0x20 ADD PUSH1 0x0 KECCAK256 SWAP1 POP PUSH1 0x1 PUSH1 0x2 DUP2 GT ISZERO PUSH2 0xD61 JUMPI PUSH2 0xD60 PUSH2 0x1FBC JUMP JUMPDEST JUMPDEST DUP2 PUSH1 0x6 ADD PUSH1 0x1 SWAP1 SLOAD SWAP1 PUSH2 0x100 EXP SWAP1 DIV PUSH1 0xFF AND PUSH1 0x2 DUP2 GT ISZERO PUSH2 0xD85 JUMPI PUSH2 0xD84 PUSH2 0x1FBC JUMP JUMPDEST JUMPDEST EQ PUSH2 0xDC5 JUMPI PUSH1 0x40 MLOAD PUSH32 0x8C379A000000000000000000000000000000000000000000000000000000000 DUP2 MSTORE PUSH1 0x4 ADD PUSH2 0xDBC SWAP1 PUSH2 0x25EE JUMP JUMPDEST PUSH1 0x40 MLOAD DUP1 SWAP2 SUB SWAP1 REVERT JUMPDEST DUP1 PUSH1 0x5 ADD SLOAD TIMESTAMP GT ISZERO PUSH2 0xE0C JUMPI PUSH1 0x40 MLOAD PUSH32 0x8C379A000000000000000000000000000000000000000000000000000000000 DUP2 MSTORE PUSH1 0x4 ADD PUSH2 0xE03 SWAP1 PUSH2 0x265A JUMP JUMPDEST PUSH1 0x40 MLOAD DUP1 SWAP2 SUB SWAP1 REVERT JUMPDEST PUSH1 0x0 PUSH20 0xFFFFFFFFFFFFFFFFFFFFFFFFFFFFFFFFFFFFFFFF AND DUP5 PUSH20 0xFFFFFFFFFFFFFFFFFFFFFFFFFFFFFFFFFFFFFFFF AND SUB PUSH2 0xF5C JUMPI DUP1 PUSH1 0x1 ADD SLOAD CALLVALUE EQ PUSH2 0xE86 JUMPI PUSH1 0x40 MLOAD PUSH32 0x8C379A000000000000000000000000000000000000000000000000000000000 DUP2 MSTORE PUSH1 0x4 ADD PUSH2 0xE7D SWAP1 PUSH2 0x26C6 JUMP JUMPDEST PUSH1 0x40 MLOAD DUP1 SWAP2 SUB SWAP1 REVERT JUMPDEST PUSH1 0x0 DUP2 PUSH1 0x0 ADD PUSH1 0x0 SWAP1 SLOAD SWAP1 PUSH2 0x100 EXP SWAP1 DIV PUSH20 0xFFFFFFFFFFFFFFFFFFFFFFFFFFFFFFFFFFFFFFFF AND PUSH20 0xFFFFFFFFFFFFFFFFFFFFFFFFFFFFFFFFFFFFFFFF AND CALLVALUE PUSH1 0x40 MLOAD PUSH2 0xED0 SWAP1 PUSH2 0x2717 JUMP JUMPDEST PUSH1 0x0 PUSH1 0x40 MLOAD DUP1 DUP4 SUB DUP2 DUP6 DUP8 GAS CALL SWAP3 POP POP POP RETURNDATASIZE DUP1 PUSH1 0x0 DUP2 EQ PUSH2 0xF0D JUMPI PUSH1 0x40 MLOAD SWAP2 POP PUSH1 0x1F NOT PUSH1 0x3F RETURNDATASIZE ADD AND DUP3 ADD PUSH1 0x40 MSTORE RETURNDATASIZE DUP3 MSTORE RETURNDATASIZE PUSH1 0x0 PUSH1 0x20 DUP5 ADD RETURNDATACOPY PUSH2 0xF12 JUMP JUMPDEST PUSH1 0x60 SWAP2 POP JUMPDEST POP POP SWAP1 POP DUP1 PUSH2 0xF56 JUMPI PUSH1 0x40 MLOAD PUSH32 0x8C379A000000000000000000000000000000000000000000000000000000000 DUP2 MSTORE PUSH1 0x4 ADD PUSH2 0xF4D SWAP1 PUSH2 0x2778 JUMP JUMPDEST PUSH1 0x40 MLOAD DUP1 SWAP2 SUB SWAP1 REVERT JUMPDEST POP PUSH2 0x10D6 JUMP JUMPDEST PUSH1 0x6 PUSH1 0x0 DUP6 PUSH20 0xFFFFFFFFFFFFFFFFFFFFFFFFFFFFFFFFFFFFFFFF AND PUSH20 0xFFFFFFFFFFFFFFFFFFFFFFFFFFFFFFFFFFFFFFFF AND DUP2 MSTORE PUSH1 0x20 ADD SWAP1 DUP2 MSTORE PUSH1 0x20 ADD PUSH1 0x0 KECCAK256 PUSH1 0x0 SWAP1 SLOAD SWAP1 PUSH2 0x100 EXP SWAP1 DIV PUSH1 0xFF AND PUSH2 0xFE8 JUMPI PUSH1 0x40 MLOAD PUSH32 0x8C379A000000000000000000000000000000000000000000000000000000000 DUP2 MSTORE PUSH1 0x4 ADD PUSH2 0xFDF SWAP1 PUSH2 0x27E4 JUMP JUMPDEST PUSH1 0x40 MLOAD DUP1 SWAP2 SUB SWAP1 REVERT JUMPDEST PUSH1 0x0 DUP5 SWAP1 POP DUP1 PUSH20 0xFFFFFFFFFFFFFFFFFFFFFFFFFFFFFFFFFFFFFFFF AND PUSH4 0x23B872DD CALLER DUP5 PUSH1 0x0 ADD PUSH1 0x0 SWAP1 SLOAD SWAP1 PUSH2 0x100 EXP SWAP1 DIV PUSH20 0xFFFFFFFFFFFFFFFFFFFFFFFFFFFFFFFFFFFFFFFF AND DUP6 PUSH1 0x1 ADD SLOAD PUSH1 0x40 MLOAD DUP5 PUSH4 0xFFFFFFFF AND PUSH1 0xE0 SHL DUP2 MSTORE PUSH1 0x4 ADD PUSH2 0x1052 SWAP4 SWAP3 SWAP2 SWAP1 PUSH2 0x2804 JUMP JUMPDEST PUSH1 0x20 PUSH1 0x40 MLOAD DUP1 DUP4 SUB DUP2 PUSH1 0x0 DUP8 GAS CALL ISZERO DUP1 ISZERO PUSH2 0x1071 JUMPI RETURNDATASIZE PUSH1 0x0 DUP1 RETURNDATACOPY RETURNDATASIZE PUSH1 0x0 REVERT JUMPDEST POP POP POP POP PUSH1 0x40 MLOAD RETURNDATASIZE PUSH1 0x1F NOT PUSH1 0x1F DUP3 ADD AND DUP3 ADD DUP1 PUSH1 0x40 MSTORE POP DUP2 ADD SWAP1 PUSH2 0x1095 SWAP2 SWAP1 PUSH2 0x2850 JUMP JUMPDEST PUSH2 0x10D4 JUMPI PUSH1 0x40 MLOAD PUSH32 0x8C379A000000000000000000000000000000000000000000000000000000000 DUP2 MSTORE PUSH1 0x4 ADD PUSH2 0x10CB SWAP1 PUSH2 0x28C9 JUMP JUMPDEST PUSH1 0x40 MLOAD DUP1 SWAP2 SUB SWAP1 REVERT JUMPDEST POP JUMPDEST CALLER PUSH20 0xFFFFFFFFFFFFFFFFFFFFFFFFFFFFFFFFFFFFFFFF AND DUP6 PUSH32 0x63E55317E25C0CAB3A2DE23EE0E244496DAEA0C1C2B8E272BBC01722B96BB9AE DUP4 PUSH1 0x1 ADD SLOAD PUSH1 0x40 MLOAD PUSH2 0x1121 SWAP2 SWAP1 PUSH2 0x1B9B JUMP JUMPDEST PUSH1 0x40 MLOAD DUP1 SWAP2 SUB SWAP1 LOG3 POP PUSH2 0x1132 PUSH2 0x1ABB JUMP JUMPDEST POP POP POP POP JUMP JUMPDEST DUP2 PUSH1 0x3 PUSH1 0x0 DUP3 DUP2 MSTORE PUSH1 0x20 ADD SWAP1 DUP2 MSTORE PUSH1 0x20 ADD PUSH1 0x0 KECCAK256 PUSH1 0x6 ADD PUSH1 0x0 SWAP1 SLOAD SWAP1 PUSH2 0x100 EXP SWAP1 DIV PUSH1 0xFF AND PUSH2 0x119C JUMPI PUSH1 0x40 MLOAD PUSH32 0x8C379A000000000000000000000000000000000000000000000000000000000 DUP2 MSTORE PUSH1 0x4 ADD PUSH2 0x1193 SWAP1 PUSH2 0x219D JUMP JUMPDEST PUSH1 0x40 MLOAD DUP1 SWAP2 SUB SWAP1 REVERT JUMPDEST PUSH1 0x0 PUSH1 0x3 PUSH1 0x0 DUP6 DUP2 MSTORE PUSH1 0x20 ADD SWAP1 DUP2 MSTORE PUSH1 0x20 ADD PUSH1 0x0 KECCAK256 SWAP1 POP DUP1 PUSH1 0x0 ADD PUSH1 0x0 SWAP1 SLOAD SWAP1 PUSH2 0x100 EXP SWAP1 DIV PUSH20 0xFFFFFFFFFFFFFFFFFFFFFFFFFFFFFFFFFFFFFFFF AND PUSH20 0xFFFFFFFFFFFFFFFFFFFFFFFFFFFFFFFFFFFFFFFF AND CALLER PUSH20 0xFFFFFFFFFFFFFFFFFFFFFFFFFFFFFFFFFFFFFFFF AND EQ PUSH2 0x1245 JUMPI PUSH1 0x40 MLOAD PUSH32 0x8C379A000000000000000000000000000000000000000000000000000000000 DUP2 MSTORE PUSH1 0x4 ADD PUSH2 0x123C SWAP1 PUSH2 0x2582 JUMP JUMPDEST PUSH1 0x40 MLOAD DUP1 SWAP2 SUB SWAP1 REVERT JUMPDEST PUSH1 0x1 PUSH1 0x2 DUP2 GT ISZERO PUSH2 0x1259 JUMPI PUSH2 0x1258 PUSH2 0x1FBC JUMP JUMPDEST JUMPDEST DUP2 PUSH1 0x6 ADD PUSH1 0x1 SWAP1 SLOAD SWAP1 PUSH2 0x100 EXP SWAP1 DIV PUSH1 0xFF AND PUSH1 0x2 DUP2 GT ISZERO PUSH2 0x127D JUMPI PUSH2 0x127C PUSH2 0x1FBC JUMP JUMPDEST JUMPDEST SUB PUSH2 0x12BD JUMPI PUSH1 0x40 MLOAD PUSH32 0x8C379A000000000000000000000000000000000000000000000000000000000 DUP2 MSTORE PUSH1 0x4 ADD PUSH2 0x12B4 SWAP1 PUSH2 0x2935 JUMP JUMPDEST PUSH1 0x40 MLOAD DUP1 SWAP2 SUB SWAP1 REVERT JUMPDEST DUP3 PUSH2 0x12C9 JUMPI PUSH1 0x0 PUSH2 0x12CC JUMP JUMPDEST PUSH1 0x2 JUMPDEST DUP2 PUSH1 0x6 ADD PUSH1 0x1 PUSH2 0x100 EXP DUP2 SLOAD DUP2 PUSH1 0xFF MUL NOT AND SWAP1 DUP4 PUSH1 0x2 DUP2 GT ISZERO PUSH2 0x12F2 JUMPI PUSH2 0x12F1 PUSH2 0x1FBC JUMP JUMPDEST JUMPDEST MUL OR SWAP1 SSTORE POP DUP4 PUSH32 0xFD3DE0F8388FD323C0292B2B5F0EDB37BDCC9288D68BB4794E9128842CAF5110 DUP5 PUSH1 0x40 MLOAD PUSH2 0x1327 SWAP2 SWAP1 PUSH2 0x1BD1 JUMP JUMPDEST PUSH1 0x40 MLOAD DUP1 SWAP2 SUB SWAP1 LOG2 POP POP POP POP JUMP JUMPDEST DUP3 PUSH1 0x3 PUSH1 0x0 DUP3 DUP2 MSTORE PUSH1 0x20 ADD SWAP1 DUP2 MSTORE PUSH1 0x20 ADD PUSH1 0x0 KECCAK256 PUSH1 0x6 ADD PUSH1 0x0 SWAP1 SLOAD SWAP1 PUSH2 0x100 EXP SWAP1 DIV PUSH1 0xFF AND PUSH2 0x1399 JUMPI PUSH1 0x40 MLOAD PUSH32 0x8C379A000000000000000000000000000000000000000000000000000000000 DUP2 MSTORE PUSH1 0x4 ADD PUSH2 0x1390 SWAP1 PUSH2 0x219D JUMP JUMPDEST PUSH1 0x40 MLOAD DUP1 SWAP2 SUB SWAP1 REVERT JUMPDEST DUP4 CALLER PUSH20 0xFFFFFFFFFFFFFFFFFFFFFFFFFFFFFFFFFFFFFFFF AND PUSH1 0x3 PUSH1 0x0 DUP4 DUP2 MSTORE PUSH1 0x20 ADD SWAP1 DUP2 MSTORE PUSH1 0x20 ADD PUSH1 0x0 KECCAK256 PUSH1 0x0 ADD PUSH1 0x0 SWAP1 SLOAD SWAP1 PUSH2 0x100 EXP SWAP1 DIV PUSH20 0xFFFFFFFFFFFFFFFFFFFFFFFFFFFFFFFFFFFFFFFF AND PUSH20 0xFFFFFFFFFFFFFFFFFFFFFFFFFFFFFFFFFFFFFFFF AND EQ PUSH2 0x143E JUMPI PUSH1 0x40 MLOAD PUSH32 0x8C379A000000000000000000000000000000000000000000000000000000000 DUP2 MSTORE PUSH1 0x4 ADD PUSH2 0x1435 SWAP1 PUSH2 0x2582 JUMP JUMPDEST PUSH1 0x40 MLOAD DUP1 SWAP2 SUB SWAP1 REVERT JUMPDEST PUSH2 0x1446 PUSH2 0x1823 JUMP JUMPDEST PUSH1 0x0 PUSH1 0x3 PUSH1 0x0 DUP8 DUP2 MSTORE PUSH1 0x20 ADD SWAP1 DUP2 MSTORE PUSH1 0x20 ADD PUSH1 0x0 KECCAK256 SWAP1 POP PUSH1 0x0 PUSH1 0x2 DUP2 GT ISZERO PUSH2 0x1471 JUMPI PUSH2 0x1470 PUSH2 0x1FBC JUMP JUMPDEST JUMPDEST DUP2 PUSH1 0x6 ADD PUSH1 0x1 SWAP1 SLOAD SWAP1 PUSH2 0x100 EXP SWAP1 DIV PUSH1 0xFF AND PUSH1 0x2 DUP2 GT ISZERO PUSH2 0x1495 JUMPI PUSH2 0x1494 PUSH2 0x1FBC JUMP JUMPDEST JUMPDEST EQ PUSH2 0x14D5 JUMPI PUSH1 0x40 MLOAD PUSH32 0x8C379A000000000000000000000000000000000000000000000000000000000 DUP2 MSTORE PUSH1 0x4 ADD PUSH2 0x14CC SWAP1 PUSH2 0x29A1 JUMP JUMPDEST PUSH1 0x40 MLOAD DUP1 SWAP2 SUB SWAP1 REVERT JUMPDEST PUSH1 0x0 PUSH20 0xFFFFFFFFFFFFFFFFFFFFFFFFFFFFFFFFFFFFFFFF AND DUP6 PUSH20 0xFFFFFFFFFFFFFFFFFFFFFFFFFFFFFFFFFFFFFFFF AND SUB PUSH2 0x1544 JUMPI PUSH1 0x40 MLOAD PUSH32 0x8C379A000000000000000000000000000000000000000000000000000000000 DUP2 MSTORE PUSH1 0x4 ADD PUSH2 0x153B SWAP1 PUSH2 0x2A0D JUMP JUMPDEST PUSH1 0x40 MLOAD DUP1 SWAP2 SUB SWAP1 REVERT JUMPDEST DUP5 DUP2 PUSH1 0x3 ADD PUSH1 0x0 PUSH2 0x100 EXP DUP2 SLOAD DUP2 PUSH20 0xFFFFFFFFFFFFFFFFFFFFFFFFFFFFFFFFFFFFFFFF MUL NOT AND SWAP1 DUP4 PUSH20 0xFFFFFFFFFFFFFFFFFFFFFFFFFFFFFFFFFFFFFFFF AND MUL OR SWAP1 SSTORE POP TIMESTAMP DUP2 PUSH1 0x4 ADD DUP2 SWAP1 SSTORE POP DUP4 TIMESTAMP PUSH2 0x159C SWAP2 SWAP1 PUSH2 0x2A2D JUMP JUMPDEST DUP2 PUSH1 0x5 ADD DUP2 SWAP1 SSTORE POP PUSH1 0x1 DUP2 PUSH1 0x6 ADD PUSH1 0x1 PUSH2 0x100 EXP DUP2 SLOAD DUP2 PUSH1 0xFF MUL NOT AND SWAP1 DUP4 PUSH1 0x2 DUP2 GT ISZERO PUSH2 0x15CC JUMPI PUSH2 0x15CB PUSH2 0x1FBC JUMP JUMPDEST JUMPDEST MUL OR SWAP1 SSTORE POP DUP5 PUSH20 0xFFFFFFFFFFFFFFFFFFFFFFFFFFFFFFFFFFFFFFFF AND DUP7 PUSH32 0xCDDDD59F4DEFD19441B2D0EC6BD6998E9F8B815B10FAD5DB2460B7486C1DA96A PUSH1 0x40 MLOAD PUSH1 0x40 MLOAD DUP1 SWAP2 SUB SWAP1 LOG3 POP POP POP POP POP POP JUMP JUMPDEST PUSH1 0x4 PUSH1 0x20 MSTORE DUP2 PUSH1 0x0 MSTORE PUSH1 0x40 PUSH1 0x0 KECCAK256 PUSH1 0x20 MSTORE DUP1 PUSH1 0x0 MSTORE PUSH1 0x40 PUSH1 0x0 KECCAK256 PUSH1 0x0 SWAP2 POP SWAP2 POP POP DUP1 PUSH1 0x0 ADD SLOAD SWAP1 DUP1 PUSH1 0x1 ADD DUP1 SLOAD PUSH2 0x1653 SWAP1 PUSH2 0x2287 JUMP JUMPDEST DUP1 PUSH1 0x1F ADD PUSH1 0x20 DUP1 SWAP2 DIV MUL PUSH1 0x20 ADD PUSH1 0x40 MLOAD SWAP1 DUP2 ADD PUSH1 0x40 MSTORE DUP1 SWAP3 SWAP2 SWAP1 DUP2 DUP2 MSTORE PUSH1 0x20 ADD DUP3 DUP1 SLOAD PUSH2 0x167F SWAP1 PUSH2 0x2287 JUMP JUMPDEST DUP1 ISZERO PUSH2 0x16CC JUMPI DUP1 PUSH1 0x1F LT PUSH2 0x16A1 JUMPI PUSH2 0x100 DUP1 DUP4 SLOAD DIV MUL DUP4 MSTORE SWAP2 PUSH1 0x20 ADD SWAP2 PUSH2 0x16CC JUMP JUMPDEST DUP3 ADD SWAP2 SWAP1 PUSH1 0x0 MSTORE PUSH1 0x20 PUSH1 0x0 KECCAK256 SWAP1 JUMPDEST DUP2 SLOAD DUP2 MSTORE SWAP1 PUSH1 0x1 ADD SWAP1 PUSH1 0x20 ADD DUP1 DUP4 GT PUSH2 0x16AF JUMPI DUP3 SWAP1 SUB PUSH1 0x1F AND DUP3 ADD SWAP2 JUMPDEST POP POP POP POP POP SWAP1 DUP1 PUSH1 0x2 ADD SLOAD SWAP1 DUP1 PUSH1 0x3 ADD PUSH1 0x0 SWAP1 SLOAD SWAP1 PUSH2 0x100 EXP SWAP1 DIV PUSH1 0xFF AND SWAP1 DUP1 PUSH1 0x4 ADD SLOAD SWAP1 POP DUP6 JUMP JUMPDEST PUSH1 0x7 SLOAD DUP2 JUMP JUMPDEST PUSH2 0x1703 PUSH2 0x1864 JUMP JUMPDEST PUSH1 0x0 PUSH20 0xFFFFFFFFFFFFFFFFFFFFFFFFFFFFFFFFFFFFFFFF AND DUP2 PUSH20 0xFFFFFFFFFFFFFFFFFFFFFFFFFFFFFFFFFFFFFFFF AND SUB PUSH2 0x1775 JUMPI PUSH1 0x0 PUSH1 0x40 MLOAD PUSH32 0x1E4FBDF700000000000000000000000000000000000000000000000000000000 DUP2 MSTORE PUSH1 0x4 ADD PUSH2 0x176C SWAP2 SWAP1 PUSH2 0x1DE4 JUMP JUMPDEST PUSH1 0x40 MLOAD DUP1 SWAP2 SUB SWAP1 REVERT JUMPDEST PUSH2 0x177E DUP2 PUSH2 0x194E JUMP JUMPDEST POP JUMP JUMPDEST PUSH1 0x3 PUSH1 0x20 MSTORE DUP1 PUSH1 0x0 MSTORE PUSH1 0x40 PUSH1 0x0 KECCAK256 PUSH1 0x0 SWAP2 POP SWAP1 POP DUP1 PUSH1 0x0 ADD PUSH1 0x0 SWAP1 SLOAD SWAP1 PUSH2 0x100 EXP SWAP1 DIV PUSH20 0xFFFFFFFFFFFFFFFFFFFFFFFFFFFFFFFFFFFFFFFF AND SWAP1 DUP1 PUSH1 0x1 ADD SLOAD SWAP1 DUP1 PUSH1 0x2 ADD SLOAD SWAP1 DUP1 PUSH1 0x3 ADD PUSH1 0x0 SWAP1 SLOAD SWAP1 PUSH2 0x100 EXP SWAP1 DIV PUSH20 0xFFFFFFFFFFFFFFFFFFFFFFFFFFFFFFFFFFFFFFFF AND SWAP1 DUP1 PUSH1 0x4 ADD SLOAD SWAP1 DUP1 PUSH1 0x5 ADD SLOAD SWAP1 DUP1 PUSH1 0x6 ADD PUSH1 0x0 SWAP1 SLOAD SWAP1 PUSH2 0x100 EXP SWAP1 DIV PUSH1 0xFF AND SWAP1 DUP1 PUSH1 0x6 ADD PUSH1 0x1 SWAP1 SLOAD SWAP1 PUSH2 0x100 EXP SWAP1 DIV PUSH1 0xFF AND SWAP1 POP DUP9 JUMP JUMPDEST PUSH2 0x182B PUSH2 0x6DC JUMP JUMPDEST ISZERO PUSH2 0x1862 JUMPI PUSH1 0x40 MLOAD PUSH32 0xD93C066500000000000000000000000000000000000000000000000000000000 DUP2 MSTORE PUSH1 0x4 ADD PUSH1 0x40 MLOAD DUP1 SWAP2 SUB SWAP1 REVERT JUMPDEST JUMP JUMPDEST PUSH2 0x186C PUSH2 0x1AC4 JUMP JUMPDEST PUSH20 0xFFFFFFFFFFFFFFFFFFFFFFFFFFFFFFFFFFFFFFFF AND PUSH2 0x188A PUSH2 0x9B8 JUMP JUMPDEST PUSH20 0xFFFFFFFFFFFFFFFFFFFFFFFFFFFFFFFFFFFFFFFF AND EQ PUSH2 0x18E9 JUMPI PUSH2 0x18AD PUSH2 0x1AC4 JUMP JUMPDEST PUSH1 0x40 MLOAD PUSH32 0x118CDAA700000000000000000000000000000000000000000000000000000000 DUP2 MSTORE PUSH1 0x4 ADD PUSH2 0x18E0 SWAP2 SWAP1 PUSH2 0x1DE4 JUMP JUMPDEST PUSH1 0x40 MLOAD DUP1 SWAP2 SUB SWAP1 REVERT JUMPDEST JUMP JUMPDEST PUSH2 0x18F3 PUSH2 0x1ACC JUMP JUMPDEST PUSH1 0x0 PUSH1 0x2 PUSH1 0x0 PUSH2 0x100 EXP DUP2 SLOAD DUP2 PUSH1 0xFF MUL NOT AND SWAP1 DUP4 ISZERO ISZERO MUL OR SWAP1 SSTORE POP PUSH32 0x5DB9EE0A495BF2E6FF9C91A7834C1BA4FDD244A5E8AA4E537BD38AEAE4B073AA PUSH2 0x1937 PUSH2 0x1AC4 JUMP JUMPDEST PUSH1 0x40 MLOAD PUSH2 0x1944 SWAP2 SWAP1 PUSH2 0x1DE4 JUMP JUMPDEST PUSH1 0x40 MLOAD DUP1 SWAP2 SUB SWAP1 LOG1 JUMP JUMPDEST PUSH1 0x0 DUP1 PUSH1 0x0 SWAP1 SLOAD SWAP1 PUSH2 0x100 EXP SWAP1 DIV PUSH20 0xFFFFFFFFFFFFFFFFFFFFFFFFFFFFFFFFFFFFFFFF AND SWAP1 POP DUP2 PUSH1 0x0 DUP1 PUSH2 0x100 EXP DUP2 SLOAD DUP2 PUSH20 0xFFFFFFFFFFFFFFFFFFFFFFFFFFFFFFFFFFFFFFFF MUL NOT AND SWAP1 DUP4 PUSH20 0xFFFFFFFFFFFFFFFFFFFFFFFFFFFFFFFFFFFFFFFF AND MUL OR SWAP1 SSTORE POP DUP2 PUSH20 0xFFFFFFFFFFFFFFFFFFFFFFFFFFFFFFFFFFFFFFFF AND DUP2 PUSH20 0xFFFFFFFFFFFFFFFFFFFFFFFFFFFFFFFFFFFFFFFF AND PUSH32 0x8BE0079C531659141344CD1FD0A4F28419497F9722A3DAAFE3B4186F6B6457E0 PUSH1 0x40 MLOAD PUSH1 0x40 MLOAD DUP1 SWAP2 SUB SWAP1 LOG3 POP POP JUMP JUMPDEST PUSH2 0x1A1A PUSH2 0x1823 JUMP JUMPDEST PUSH1 0x1 PUSH1 0x2 PUSH1 0x0 PUSH2 0x100 EXP DUP2 SLOAD DUP2 PUSH1 0xFF MUL NOT AND SWAP1 DUP4 ISZERO ISZERO MUL OR SWAP1 SSTORE POP PUSH32 0x62E78CEA01BEE320CD4E420270B5EA74000D11B0C9F74754EBDBFC544B05A258 PUSH2 0x1A5E PUSH2 0x1AC4 JUMP JUMPDEST PUSH1 0x40 MLOAD PUSH2 0x1A6B SWAP2 SWAP1 PUSH2 0x1DE4 JUMP JUMPDEST PUSH1 0x40 MLOAD DUP1 SWAP2 SUB SWAP1 LOG1 JUMP JUMPDEST PUSH1 0x2 PUSH1 0x1 SLOAD SUB PUSH2 0x1AB1 JUMPI PUSH1 0x40 MLOAD PUSH32 0x3EE5AEB500000000000000000000000000000000000000000000000000000000 DUP2 MSTORE PUSH1 0x4 ADD PUSH1 0x40 MLOAD DUP1 SWAP2 SUB SWAP1 REVERT JUMPDEST PUSH1 0x2 PUSH1 0x1 DUP2 SWAP1 SSTORE POP JUMP JUMPDEST PUSH1 0x1 DUP1 DUP2 SWAP1 SSTORE POP JUMP JUMPDEST PUSH1 0x0 CALLER SWAP1 POP SWAP1 JUMP JUMPDEST PUSH2 0x1AD4 PUSH2 0x6DC JUMP JUMPDEST PUSH2 0x1B0A JUMPI PUSH1 0x40 MLOAD PUSH32 0x8DFC202B00000000000000000000000000000000000000000000000000000000 DUP2 MSTORE PUSH1 0x4 ADD PUSH1 0x40 MLOAD DUP1 SWAP2 SUB SWAP1 REVERT JUMPDEST JUMP JUMPDEST PUSH1 0x0 DUP1 REVERT JUMPDEST PUSH1 0x0 DUP1 REVERT JUMPDEST PUSH1 0x0 DUP2 SWAP1 POP SWAP2 SWAP1 POP JUMP JUMPDEST PUSH2 0x1B29 DUP2 PUSH2 0x1B16 JUMP JUMPDEST DUP2 EQ PUSH2 0x1B34 JUMPI PUSH1 0x0 DUP1 REVERT JUMPDEST POP JUMP JUMPDEST PUSH1 0x0 DUP2 CALLDATALOAD SWAP1 POP PUSH2 0x1B46 DUP2 PUSH2 0x1B20 JUMP JUMPDEST SWAP3 SWAP2 POP POP JUMP JUMPDEST PUSH1 0x0 DUP1 PUSH1 0x40 DUP4 DUP6 SUB SLT ISZERO PUSH2 0x1B63 JUMPI PUSH2 0x1B62 PUSH2 0x1B0C JUMP JUMPDEST JUMPDEST PUSH1 0x0 PUSH2 0x1B71 DUP6 DUP3 DUP7 ADD PUSH2 0x1B37 JUMP JUMPDEST SWAP3 POP POP PUSH1 0x20 PUSH2 0x1B82 DUP6 DUP3 DUP7 ADD PUSH2 0x1B37 JUMP JUMPDEST SWAP2 POP POP SWAP3 POP SWAP3 SWAP1 POP JUMP JUMPDEST PUSH2 0x1B95 DUP2 PUSH2 0x1B16 JUMP JUMPDEST DUP3 MSTORE POP POP JUMP JUMPDEST PUSH1 0x0 PUSH1 0x20 DUP3 ADD SWAP1 POP PUSH2 0x1BB0 PUSH1 0x0 DUP4 ADD DUP5 PUSH2 0x1B8C JUMP JUMPDEST SWAP3 SWAP2 POP POP JUMP JUMPDEST PUSH1 0x0 DUP2 ISZERO ISZERO SWAP1 POP SWAP2 SWAP1 POP JUMP JUMPDEST PUSH2 0x1BCB DUP2 PUSH2 0x1BB6 JUMP JUMPDEST DUP3 MSTORE POP POP JUMP JUMPDEST PUSH1 0x0 PUSH1 0x20 DUP3 ADD SWAP1 POP PUSH2 0x1BE6 PUSH1 0x0 DUP4 ADD DUP5 PUSH2 0x1BC2 JUMP JUMPDEST SWAP3 SWAP2 POP POP JUMP JUMPDEST PUSH1 0x0 PUSH20 0xFFFFFFFFFFFFFFFFFFFFFFFFFFFFFFFFFFFFFFFF DUP3 AND SWAP1 POP SWAP2 SWAP1 POP JUMP JUMPDEST PUSH1 0x0 PUSH2 0x1C17 DUP3 PUSH2 0x1BEC JUMP JUMPDEST SWAP1 POP SWAP2 SWAP1 POP JUMP JUMPDEST PUSH2 0x1C27 DUP2 PUSH2 0x1C0C JUMP JUMPDEST DUP2 EQ PUSH2 0x1C32 JUMPI PUSH1 0x0 DUP1 REVERT JUMPDEST POP JUMP JUMPDEST PUSH1 0x0 DUP2 CALLDATALOAD SWAP1 POP PUSH2 0x1C44 DUP2 PUSH2 0x1C1E JUMP JUMPDEST SWAP3 SWAP2 POP POP JUMP JUMPDEST PUSH2 0x1C53 DUP2 PUSH2 0x1BB6 JUMP JUMPDEST DUP2 EQ PUSH2 0x1C5E JUMPI PUSH1 0x0 DUP1 REVERT JUMPDEST POP JUMP JUMPDEST PUSH1 0x0 DUP2 CALLDATALOAD SWAP1 POP PUSH2 0x1C70 DUP2 PUSH2 0x1C4A JUMP JUMPDEST SWAP3 SWAP2 POP POP JUMP JUMPDEST PUSH1 0x0 DUP1 PUSH1 0x40 DUP4 DUP6 SUB SLT ISZERO PUSH2 0x1C8D JUMPI PUSH2 0x1C8C PUSH2 0x1B0C JUMP JUMPDEST JUMPDEST PUSH1 0x0 PUSH2 0x1C9B DUP6 DUP3 DUP7 ADD PUSH2 0x1C35 JUMP JUMPDEST SWAP3 POP POP PUSH1 0x20 PUSH2 0x1CAC DUP6 DUP3 DUP7 ADD PUSH2 0x1C61 JUMP JUMPDEST SWAP2 POP POP SWAP3 POP SWAP3 SWAP1 POP JUMP JUMPDEST PUSH1 0x0 PUSH1 0x20 DUP3 DUP5 SUB SLT ISZERO PUSH2 0x1CCC JUMPI PUSH2 0x1CCB PUSH2 0x1B0C JUMP JUMPDEST JUMPDEST PUSH1 0x0 PUSH2 0x1CDA DUP5 DUP3 DUP6 ADD PUSH2 0x1C35 JUMP JUMPDEST SWAP2 POP POP SWAP3 SWAP2 POP POP JUMP JUMPDEST PUSH1 0x0 PUSH1 0x20 DUP3 DUP5 SUB SLT ISZERO PUSH2 0x1CF9 JUMPI PUSH2 0x1CF8 PUSH2 0x1B0C JUMP JUMPDEST JUMPDEST PUSH1 0x0 PUSH2 0x1D07 DUP5 DUP3 DUP6 ADD PUSH2 0x1B37 JUMP JUMPDEST SWAP2 POP POP SWAP3 SWAP2 POP POP JUMP JUMPDEST PUSH1 0x0 DUP1 REVERT JUMPDEST PUSH1 0x0 DUP1 REVERT JUMPDEST PUSH1 0x0 DUP1 REVERT JUMPDEST PUSH1 0x0 DUP1 DUP4 PUSH1 0x1F DUP5 ADD SLT PUSH2 0x1D35 JUMPI PUSH2 0x1D34 PUSH2 0x1D10 JUMP JUMPDEST JUMPDEST DUP3 CALLDATALOAD SWAP1 POP PUSH8 0xFFFFFFFFFFFFFFFF DUP2 GT ISZERO PUSH2 0x1D52 JUMPI PUSH2 0x1D51 PUSH2 0x1D15 JUMP JUMPDEST JUMPDEST PUSH1 0x20 DUP4 ADD SWAP2 POP DUP4 PUSH1 0x1 DUP3 MUL DUP4 ADD GT ISZERO PUSH2 0x1D6E JUMPI PUSH2 0x1D6D PUSH2 0x1D1A JUMP JUMPDEST JUMPDEST SWAP3 POP SWAP3 SWAP1 POP JUMP JUMPDEST PUSH1 0x0 DUP1 PUSH1 0x0 PUSH1 0x40 DUP5 DUP7 SUB SLT ISZERO PUSH2 0x1D8E JUMPI PUSH2 0x1D8D PUSH2 0x1B0C JUMP JUMPDEST JUMPDEST PUSH1 0x0 PUSH2 0x1D9C DUP7 DUP3 DUP8 ADD PUSH2 0x1B37 JUMP JUMPDEST SWAP4 POP POP PUSH1 0x20 DUP5 ADD CALLDATALOAD PUSH8 0xFFFFFFFFFFFFFFFF DUP2 GT ISZERO PUSH2 0x1DBD JUMPI PUSH2 0x1DBC PUSH2 0x1B11 JUMP JUMPDEST JUMPDEST PUSH2 0x1DC9 DUP7 DUP3 DUP8 ADD PUSH2 0x1D1F JUMP JUMPDEST SWAP3 POP SWAP3 POP POP SWAP3 POP SWAP3 POP SWAP3 JUMP JUMPDEST PUSH2 0x1DDE DUP2 PUSH2 0x1C0C JUMP JUMPDEST DUP3 MSTORE POP POP JUMP JUMPDEST PUSH1 0x0 PUSH1 0x20 DUP3 ADD SWAP1 POP PUSH2 0x1DF9 PUSH1 0x0 DUP4 ADD DUP5 PUSH2 0x1DD5 JUMP JUMPDEST SWAP3 SWAP2 POP POP JUMP JUMPDEST PUSH1 0x0 DUP1 PUSH1 0x40 DUP4 DUP6 SUB SLT ISZERO PUSH2 0x1E16 JUMPI PUSH2 0x1E15 PUSH2 0x1B0C JUMP JUMPDEST JUMPDEST PUSH1 0x0 PUSH2 0x1E24 DUP6 DUP3 DUP7 ADD PUSH2 0x1B37 JUMP JUMPDEST SWAP3 POP POP PUSH1 0x20 PUSH2 0x1E35 DUP6 DUP3 DUP7 ADD PUSH2 0x1C35 JUMP JUMPDEST SWAP2 POP POP SWAP3 POP SWAP3 SWAP1 POP JUMP JUMPDEST PUSH1 0x0 DUP1 PUSH1 0x40 DUP4 DUP6 SUB SLT ISZERO PUSH2 0x1E56 JUMPI PUSH2 0x1E55 PUSH2 0x1B0C JUMP JUMPDEST JUMPDEST PUSH1 0x0 PUSH2 0x1E64 DUP6 DUP3 DUP7 ADD PUSH2 0x1B37 JUMP JUMPDEST SWAP3 POP POP PUSH1 0x20 PUSH2 0x1E75 DUP6 DUP3 DUP7 ADD PUSH2 0x1C61 JUMP JUMPDEST SWAP2 POP POP SWAP3 POP SWAP3 SWAP1 POP JUMP JUMPDEST PUSH1 0x0 DUP1 PUSH1 0x0 PUSH1 0x60 DUP5 DUP7 SUB SLT ISZERO PUSH2 0x1E98 JUMPI PUSH2 0x1E97 PUSH2 0x1B0C JUMP JUMPDEST JUMPDEST PUSH1 0x0 PUSH2 0x1EA6 DUP7 DUP3 DUP8 ADD PUSH2 0x1B37 JUMP JUMPDEST SWAP4 POP POP PUSH1 0x20 PUSH2 0x1EB7 DUP7 DUP3 DUP8 ADD PUSH2 0x1C35 JUMP JUMPDEST SWAP3 POP POP PUSH1 0x40 PUSH2 0x1EC8 DUP7 DUP3 DUP8 ADD PUSH2 0x1B37 JUMP JUMPDEST SWAP2 POP POP SWAP3 POP SWAP3 POP SWAP3 JUMP JUMPDEST PUSH1 0x0 DUP2 MLOAD SWAP1 POP SWAP2 SWAP1 POP JUMP JUMPDEST PUSH1 0x0 DUP3 DUP3 MSTORE PUSH1 0x20 DUP3 ADD SWAP1 POP SWAP3 SWAP2 POP POP JUMP JUMPDEST PUSH1 0x0 JUMPDEST DUP4 DUP2 LT ISZERO PUSH2 0x1F0C JUMPI DUP1 DUP3 ADD MLOAD DUP2 DUP5 ADD MSTORE PUSH1 0x20 DUP2 ADD SWAP1 POP PUSH2 0x1EF1 JUMP JUMPDEST PUSH1 0x0 DUP5 DUP5 ADD MSTORE POP POP POP POP JUMP JUMPDEST PUSH1 0x0 PUSH1 0x1F NOT PUSH1 0x1F DUP4 ADD AND SWAP1 POP SWAP2 SWAP1 POP JUMP JUMPDEST PUSH1 0x0 PUSH2 0x1F34 DUP3 PUSH2 0x1ED2 JUMP JUMPDEST PUSH2 0x1F3E DUP2 DUP6 PUSH2 0x1EDD JUMP JUMPDEST SWAP4 POP PUSH2 0x1F4E DUP2 DUP6 PUSH1 0x20 DUP7 ADD PUSH2 0x1EEE JUMP JUMPDEST PUSH2 0x1F57 DUP2 PUSH2 0x1F18 JUMP JUMPDEST DUP5 ADD SWAP2 POP POP SWAP3 SWAP2 POP POP JUMP JUMPDEST PUSH1 0x0 PUSH1 0xA0 DUP3 ADD SWAP1 POP PUSH2 0x1F77 PUSH1 0x0 DUP4 ADD DUP9 PUSH2 0x1B8C JUMP JUMPDEST DUP2 DUP2 SUB PUSH1 0x20 DUP4 ADD MSTORE PUSH2 0x1F89 DUP2 DUP8 PUSH2 0x1F29 JUMP JUMPDEST SWAP1 POP PUSH2 0x1F98 PUSH1 0x40 DUP4 ADD DUP7 PUSH2 0x1B8C JUMP JUMPDEST PUSH2 0x1FA5 PUSH1 0x60 DUP4 ADD DUP6 PUSH2 0x1BC2 JUMP JUMPDEST PUSH2 0x1FB2 PUSH1 0x80 DUP4 ADD DUP5 PUSH2 0x1B8C JUMP JUMPDEST SWAP7 SWAP6 POP POP POP POP POP POP JUMP JUMPDEST PUSH32 0x4E487B7100000000000000000000000000000000000000000000000000000000 PUSH1 0x0 MSTORE PUSH1 0x21 PUSH1 0x4 MSTORE PUSH1 0x24 PUSH1 0x0 REVERT JUMPDEST PUSH1 0x3 DUP2 LT PUSH2 0x1FFC JUMPI PUSH2 0x1FFB PUSH2 0x1FBC JUMP JUMPDEST JUMPDEST POP JUMP JUMPDEST PUSH1 0x0 DUP2 SWAP1 POP PUSH2 0x200D DUP3 PUSH2 0x1FEB JUMP JUMPDEST SWAP2 SWAP1 POP JUMP JUMPDEST PUSH1 0x0 PUSH2 0x201D DUP3 PUSH2 0x1FFF JUMP JUMPDEST SWAP1 POP SWAP2 SWAP1 POP JUMP JUMPDEST PUSH2 0x202D DUP2 PUSH2 0x2012 JUMP JUMPDEST DUP3 MSTORE POP POP JUMP JUMPDEST PUSH1 0x0 PUSH2 0x100 DUP3 ADD SWAP1 POP PUSH2 0x2049 PUSH1 0x0 DUP4 ADD DUP12 PUSH2 0x1DD5 JUMP JUMPDEST PUSH2 0x2056 PUSH1 0x20 DUP4 ADD DUP11 PUSH2 0x1B8C JUMP JUMPDEST PUSH2 0x2063 PUSH1 0x40 DUP4 ADD DUP10 PUSH2 0x1B8C JUMP JUMPDEST PUSH2 0x2070 PUSH1 0x60 DUP4 ADD DUP9 PUSH2 0x1DD5 JUMP JUMPDEST PUSH2 0x207D PUSH1 0x80 DUP4 ADD DUP8 PUSH2 0x1B8C JUMP JUMPDEST PUSH2 0x208A PUSH1 0xA0 DUP4 ADD DUP7 PUSH2 0x1B8C JUMP JUMPDEST PUSH2 0x2097 PUSH1 0xC0 DUP4 ADD DUP6 PUSH2 0x1BC2 JUMP JUMPDEST PUSH2 0x20A4 PUSH1 0xE0 DUP4 ADD DUP5 PUSH2 0x2024 JUMP JUMPDEST SWAP10 SWAP9 POP POP POP POP POP POP POP POP POP JUMP JUMPDEST PUSH32 0x4E487B7100000000000000000000000000000000000000000000000000000000 PUSH1 0x0 MSTORE PUSH1 0x11 PUSH1 0x4 MSTORE PUSH1 0x24 PUSH1 0x0 REVERT JUMPDEST PUSH1 0x0 PUSH2 0x20EB DUP3 PUSH2 0x1B16 JUMP JUMPDEST SWAP2 POP PUSH32 0xFFFFFFFFFFFFFFFFFFFFFFFFFFFFFFFFFFFFFFFFFFFFFFFFFFFFFFFFFFFFFFFF DUP3 SUB PUSH2 0x211D JUMPI PUSH2 0x211C PUSH2 0x20B1 JUMP JUMPDEST JUMPDEST PUSH1 0x1 DUP3 ADD SWAP1 POP SWAP2 SWAP1 POP JUMP JUMPDEST PUSH1 0x0 PUSH1 0x40 DUP3 ADD SWAP1 POP PUSH2 0x213D PUSH1 0x0 DUP4 ADD DUP6 PUSH2 0x1DD5 JUMP JUMPDEST PUSH2 0x214A PUSH1 0x20 DUP4 ADD DUP5 PUSH2 0x1B8C JUMP JUMPDEST SWAP4 SWAP3 POP POP POP JUMP JUMPDEST PUSH32 0x50726F706572747920646F6573206E6F74206578697374000000000000000000 PUSH1 0x0 DUP3 ADD MSTORE POP JUMP JUMPDEST PUSH1 0x0 PUSH2 0x2187 PUSH1 0x17 DUP4 PUSH2 0x1EDD JUMP JUMPDEST SWAP2 POP PUSH2 0x2192 DUP3 PUSH2 0x2151 JUMP JUMPDEST PUSH1 0x20 DUP3 ADD SWAP1 POP SWAP2 SWAP1 POP JUMP JUMPDEST PUSH1 0x0 PUSH1 0x20 DUP3 ADD SWAP1 POP DUP2 DUP2 SUB PUSH1 0x0 DUP4 ADD MSTORE PUSH2 0x21B6 DUP2 PUSH2 0x217A JUMP JUMPDEST SWAP1 POP SWAP2 SWAP1 POP JUMP JUMPDEST PUSH32 0x4E6F742063757272656E742074656E616E740000000000000000000000000000 PUSH1 0x0 DUP3 ADD MSTORE POP JUMP JUMPDEST PUSH1 0x0 PUSH2 0x21F3 PUSH1 0x12 DUP4 PUSH2 0x1EDD JUMP JUMPDEST SWAP2 POP PUSH2 0x21FE DUP3 PUSH2 0x21BD JUMP JUMPDEST PUSH1 0x20 DUP3 ADD SWAP1 POP SWAP2 SWAP1 POP JUMP JUMPDEST PUSH1 0x0 PUSH1 0x20 DUP3 ADD SWAP1 POP DUP2 DUP2 SUB PUSH1 0x0 DUP4 ADD MSTORE PUSH2 0x2222 DUP2 PUSH2 0x21E6 JUMP JUMPDEST SWAP1 POP SWAP2 SWAP1 POP JUMP JUMPDEST PUSH32 0x4E487B7100000000000000000000000000000000000000000000000000000000 PUSH1 0x0 MSTORE PUSH1 0x41 PUSH1 0x4 MSTORE PUSH1 0x24 PUSH1 0x0 REVERT JUMPDEST PUSH32 0x4E487B7100000000000000000000000000000000000000000000000000000000 PUSH1 0x0 MSTORE PUSH1 0x22 PUSH1 0x4 MSTORE PUSH1 0x24 PUSH1 0x0 REVERT JUMPDEST PUSH1 0x0 PUSH1 0x2 DUP3 DIV SWAP1 POP PUSH1 0x1 DUP3 AND DUP1 PUSH2 0x229F JUMPI PUSH1 0x7F DUP3 AND SWAP2 POP JUMPDEST PUSH1 0x20 DUP3 LT DUP2 SUB PUSH2 0x22B2 JUMPI PUSH2 0x22B1 PUSH2 0x2258 JUMP JUMPDEST JUMPDEST POP SWAP2 SWAP1 POP JUMP JUMPDEST PUSH1 0x0 DUP2 SWAP1 POP DUP2 PUSH1 0x0 MSTORE PUSH1 0x20 PUSH1 0x0 KECCAK256 SWAP1 POP SWAP2 SWAP1 POP JUMP JUMPDEST PUSH1 0x0 PUSH1 0x20 PUSH1 0x1F DUP4 ADD DIV SWAP1 POP SWAP2 SWAP1 POP JUMP JUMPDEST PUSH1 0x0 DUP3 DUP3 SHL SWAP1 POP SWAP3 SWAP2 POP POP JUMP JUMPDEST PUSH1 0x0 PUSH1 0x8 DUP4 MUL PUSH2 0x231A PUSH32 0xFFFFFFFFFFFFFFFFFFFFFFFFFFFFFFFFFFFFFFFFFFFFFFFFFFFFFFFFFFFFFFFF DUP3 PUSH2 0x22DD JUMP JUMPDEST PUSH2 0x2324 DUP7 DUP4 PUSH2 0x22DD JUMP JUMPDEST SWAP6 POP DUP1 NOT DUP5 AND SWAP4 POP DUP1 DUP7 AND DUP5 OR SWAP3 POP POP POP SWAP4 SWAP3 POP POP POP JUMP JUMPDEST PUSH1 0x0 DUP2 SWAP1 POP SWAP2 SWAP1 POP JUMP JUMPDEST PUSH1 0x0 PUSH2 0x2361 PUSH2 0x235C PUSH2 0x2357 DUP5 PUSH2 0x1B16 JUMP JUMPDEST PUSH2 0x233C JUMP JUMPDEST PUSH2 0x1B16 JUMP JUMPDEST SWAP1 POP SWAP2 SWAP1 POP JUMP JUMPDEST PUSH1 0x0 DUP2 SWAP1 POP SWAP2 SWAP1 POP JUMP JUMPDEST PUSH2 0x237B DUP4 PUSH2 0x2346 JUMP JUMPDEST PUSH2 0x238F PUSH2 0x2387 DUP3 PUSH2 0x2368 JUMP JUMPDEST DUP5 DUP5 SLOAD PUSH2 0x22EA JUMP JUMPDEST DUP3 SSTORE POP POP POP POP JUMP JUMPDEST PUSH1 0x0 SWAP1 JUMP JUMPDEST PUSH2 0x23A4 PUSH2 0x2397 JUMP JUMPDEST PUSH2 0x23AF DUP2 DUP5 DUP5 PUSH2 0x2372 JUMP JUMPDEST POP POP POP JUMP JUMPDEST JUMPDEST DUP2 DUP2 LT ISZERO PUSH2 0x23D3 JUMPI PUSH2 0x23C8 PUSH1 0x0 DUP3 PUSH2 0x239C JUMP JUMPDEST PUSH1 0x1 DUP2 ADD SWAP1 POP PUSH2 0x23B5 JUMP JUMPDEST POP POP JUMP JUMPDEST PUSH1 0x1F DUP3 GT ISZERO PUSH2 0x2418 JUMPI PUSH2 0x23E9 DUP2 PUSH2 0x22B8 JUMP JUMPDEST PUSH2 0x23F2 DUP5 PUSH2 0x22CD JUMP JUMPDEST DUP2 ADD PUSH1 0x20 DUP6 LT ISZERO PUSH2 0x2401 JUMPI DUP2 SWAP1 POP JUMPDEST PUSH2 0x2415 PUSH2 0x240D DUP6 PUSH2 0x22CD JUMP JUMPDEST DUP4 ADD DUP3 PUSH2 0x23B4 JUMP JUMPDEST POP POP JUMPDEST POP POP POP JUMP JUMPDEST PUSH1 0x0 DUP3 DUP3 SHR SWAP1 POP SWAP3 SWAP2 POP POP JUMP JUMPDEST PUSH1 0x0 PUSH2 0x243B PUSH1 0x0 NOT DUP5 PUSH1 0x8 MUL PUSH2 0x241D JUMP JUMPDEST NOT DUP1 DUP4 AND SWAP2 POP POP SWAP3 SWAP2 POP POP JUMP JUMPDEST PUSH1 0x0 PUSH2 0x2454 DUP4 DUP4 PUSH2 0x242A JUMP JUMPDEST SWAP2 POP DUP3 PUSH1 0x2 MUL DUP3 OR SWAP1 POP SWAP3 SWAP2 POP POP JUMP JUMPDEST PUSH2 0x246D DUP3 PUSH2 0x1ED2 JUMP JUMPDEST PUSH8 0xFFFFFFFFFFFFFFFF DUP2 GT ISZERO PUSH2 0x2486 JUMPI PUSH2 0x2485 PUSH2 0x2229 JUMP JUMPDEST JUMPDEST PUSH2 0x2490 DUP3 SLOAD PUSH2 0x2287 JUMP JUMPDEST PUSH2 0x249B DUP3 DUP3 DUP6 PUSH2 0x23D7 JUMP JUMPDEST PUSH1 0x0 PUSH1 0x20 SWAP1 POP PUSH1 0x1F DUP4 GT PUSH1 0x1 DUP2 EQ PUSH2 0x24CE JUMPI PUSH1 0x0 DUP5 ISZERO PUSH2 0x24BC JUMPI DUP3 DUP8 ADD MLOAD SWAP1 POP JUMPDEST PUSH2 0x24C6 DUP6 DUP3 PUSH2 0x2448 JUMP JUMPDEST DUP7 SSTORE POP PUSH2 0x252E JUMP JUMPDEST PUSH1 0x1F NOT DUP5 AND PUSH2 0x24DC DUP7 PUSH2 0x22B8 JUMP JUMPDEST PUSH1 0x0 JUMPDEST DUP3 DUP2 LT ISZERO PUSH2 0x2504 JUMPI DUP5 DUP10 ADD MLOAD DUP3 SSTORE PUSH1 0x1 DUP3 ADD SWAP2 POP PUSH1 0x20 DUP6 ADD SWAP5 POP PUSH1 0x20 DUP2 ADD SWAP1 POP PUSH2 0x24DF JUMP JUMPDEST DUP7 DUP4 LT ISZERO PUSH2 0x2521 JUMPI DUP5 DUP10 ADD MLOAD PUSH2 0x251D PUSH1 0x1F DUP10 AND DUP3 PUSH2 0x242A JUMP JUMPDEST DUP4 SSTORE POP JUMPDEST PUSH1 0x1 PUSH1 0x2 DUP9 MUL ADD DUP9 SSTORE POP POP POP JUMPDEST POP POP POP POP POP POP JUMP JUMPDEST PUSH32 0x4E6F742070726F7065727479206F776E65720000000000000000000000000000 PUSH1 0x0 DUP3 ADD MSTORE POP JUMP JUMPDEST PUSH1 0x0 PUSH2 0x256C PUSH1 0x12 DUP4 PUSH2 0x1EDD JUMP JUMPDEST SWAP2 POP PUSH2 0x2577 DUP3 PUSH2 0x2536 JUMP JUMPDEST PUSH1 0x20 DUP3 ADD SWAP1 POP SWAP2 SWAP1 POP JUMP JUMPDEST PUSH1 0x0 PUSH1 0x20 DUP3 ADD SWAP1 POP DUP2 DUP2 SUB PUSH1 0x0 DUP4 ADD MSTORE PUSH2 0x259B DUP2 PUSH2 0x255F JUMP JUMPDEST SWAP1 POP SWAP2 SWAP1 POP JUMP JUMPDEST PUSH32 0x50726F7065727479206E6F742072656E74656400000000000000000000000000 PUSH1 0x0 DUP3 ADD MSTORE POP JUMP JUMPDEST PUSH1 0x0 PUSH2 0x25D8 PUSH1 0x13 DUP4 PUSH2 0x1EDD JUMP JUMPDEST SWAP2 POP PUSH2 0x25E3 DUP3 PUSH2 0x25A2 JUMP JUMPDEST PUSH1 0x20 DUP3 ADD SWAP1 POP SWAP2 SWAP1 POP JUMP JUMPDEST PUSH1 0x0 PUSH1 0x20 DUP3 ADD SWAP1 POP DUP2 DUP2 SUB PUSH1 0x0 DUP4 ADD MSTORE PUSH2 0x2607 DUP2 PUSH2 0x25CB JUMP JUMPDEST SWAP1 POP SWAP2 SWAP1 POP JUMP JUMPDEST PUSH32 0x4C65617365206578706972656400000000000000000000000000000000000000 PUSH1 0x0 DUP3 ADD MSTORE POP JUMP JUMPDEST PUSH1 0x0 PUSH2 0x2644 PUSH1 0xD DUP4 PUSH2 0x1EDD JUMP JUMPDEST SWAP2 POP PUSH2 0x264F DUP3 PUSH2 0x260E JUMP JUMPDEST PUSH1 0x20 DUP3 ADD SWAP1 POP SWAP2 SWAP1 POP JUMP JUMPDEST PUSH1 0x0 PUSH1 0x20 DUP3 ADD SWAP1 POP DUP2 DUP2 SUB PUSH1 0x0 DUP4 ADD MSTORE PUSH2 0x2673 DUP2 PUSH2 0x2637 JUMP JUMPDEST SWAP1 POP SWAP2 SWAP1 POP JUMP JUMPDEST PUSH32 0x496E636F72726563742072656E7420616D6F756E740000000000000000000000 PUSH1 0x0 DUP3 ADD MSTORE POP JUMP JUMPDEST PUSH1 0x0 PUSH2 0x26B0 PUSH1 0x15 DUP4 PUSH2 0x1EDD JUMP JUMPDEST SWAP2 POP PUSH2 0x26BB DUP3 PUSH2 0x267A JUMP JUMPDEST PUSH1 0x20 DUP3 ADD SWAP1 POP SWAP2 SWAP1 POP JUMP JUMPDEST PUSH1 0x0 PUSH1 0x20 DUP3 ADD SWAP1 POP DUP2 DUP2 SUB PUSH1 0x0 DUP4 ADD MSTORE PUSH2 0x26DF DUP2 PUSH2 0x26A3 JUMP JUMPDEST SWAP1 POP SWAP2 SWAP1 POP JUMP JUMPDEST PUSH1 0x0 DUP2 SWAP1 POP SWAP3 SWAP2 POP POP JUMP JUMPDEST POP JUMP JUMPDEST PUSH1 0x0 PUSH2 0x2701 PUSH1 0x0 DUP4 PUSH2 0x26E6 JUMP JUMPDEST SWAP2 POP PUSH2 0x270C DUP3 PUSH2 0x26F1 JUMP JUMPDEST PUSH1 0x0 DUP3 ADD SWAP1 POP SWAP2 SWAP1 POP JUMP JUMPDEST PUSH1 0x0 PUSH2 0x2722 DUP3 PUSH2 0x26F4 JUMP JUMPDEST SWAP2 POP DUP2 SWAP1 POP SWAP2 SWAP1 POP JUMP JUMPDEST PUSH32 0x5472616E73666572206661696C65640000000000000000000000000000000000 PUSH1 0x0 DUP3 ADD MSTORE POP JUMP JUMPDEST PUSH1 0x0 PUSH2 0x2762 PUSH1 0xF DUP4 PUSH2 0x1EDD JUMP JUMPDEST SWAP2 POP PUSH2 0x276D DUP3 PUSH2 0x272C JUMP JUMPDEST PUSH1 0x20 DUP3 ADD SWAP1 POP SWAP2 SWAP1 POP JUMP JUMPDEST PUSH1 0x0 PUSH1 0x20 DUP3 ADD SWAP1 POP DUP2 DUP2 SUB PUSH1 0x0 DUP4 ADD MSTORE PUSH2 0x2791 DUP2 PUSH2 0x2755 JUMP JUMPDEST SWAP1 POP SWAP2 SWAP1 POP JUMP JUMPDEST PUSH32 0x546F6B656E206E6F7420617070726F7665640000000000000000000000000000 PUSH1 0x0 DUP3 ADD MSTORE POP JUMP JUMPDEST PUSH1 0x0 PUSH2 0x27CE PUSH1 0x12 DUP4 PUSH2 0x1EDD JUMP JUMPDEST SWAP2 POP PUSH2 0x27D9 DUP3 PUSH2 0x2798 JUMP JUMPDEST PUSH1 0x20 DUP3 ADD SWAP1 POP SWAP2 SWAP1 POP JUMP JUMPDEST PUSH1 0x0 PUSH1 0x20 DUP3 ADD SWAP1 POP DUP2 DUP2 SUB PUSH1 0x0 DUP4 ADD MSTORE PUSH2 0x27FD DUP2 PUSH2 0x27C1 JUMP JUMPDEST SWAP1 POP SWAP2 SWAP1 POP JUMP JUMPDEST PUSH1 0x0 PUSH1 0x60 DUP3 ADD SWAP1 POP PUSH2 0x2819 PUSH1 0x0 DUP4 ADD DUP7 PUSH2 0x1DD5 JUMP JUMPDEST PUSH2 0x2826 PUSH1 0x20 DUP4 ADD DUP6 PUSH2 0x1DD5 JUMP JUMPDEST PUSH2 0x2833 PUSH1 0x40 DUP4 ADD DUP5 PUSH2 0x1B8C JUMP JUMPDEST SWAP5 SWAP4 POP POP POP POP JUMP JUMPDEST PUSH1 0x0 DUP2 MLOAD SWAP1 POP PUSH2 0x284A DUP2 PUSH2 0x1C4A JUMP JUMPDEST SWAP3 SWAP2 POP POP JUMP JUMPDEST PUSH1 0x0 PUSH1 0x20 DUP3 DUP5 SUB SLT ISZERO PUSH2 0x2866 JUMPI PUSH2 0x2865 PUSH2 0x1B0C JUMP JUMPDEST JUMPDEST PUSH1 0x0 PUSH2 0x2874 DUP5 DUP3 DUP6 ADD PUSH2 0x283B JUMP JUMPDEST SWAP2 POP POP SWAP3 SWAP2 POP POP JUMP JUMPDEST PUSH32 0x546F6B656E207472616E73666572206661696C65640000000000000000000000 PUSH1 0x0 DUP3 ADD MSTORE POP JUMP JUMPDEST PUSH1 0x0 PUSH2 0x28B3 PUSH1 0x15 DUP4 PUSH2 0x1EDD JUMP JUMPDEST SWAP2 POP PUSH2 0x28BE DUP3 PUSH2 0x287D JUMP JUMPDEST PUSH1 0x20 DUP3 ADD SWAP1 POP SWAP2 SWAP1 POP JUMP JUMPDEST PUSH1 0x0 PUSH1 0x20 DUP3 ADD SWAP1 POP DUP2 DUP2 SUB PUSH1 0x0 DUP4 ADD MSTORE PUSH2 0x28E2 DUP2 PUSH2 0x28A6 JUMP JUMPDEST SWAP1 POP SWAP2 SWAP1 POP JUMP JUMPDEST PUSH32 0x43616E6E6F74206D61696E7461696E2072656E7465642070726F706572747900 PUSH1 0x0 DUP3 ADD MSTORE POP JUMP JUMPDEST PUSH1 0x0 PUSH2 0x291F PUSH1 0x1F DUP4 PUSH2 0x1EDD JUMP JUMPDEST SWAP2 POP PUSH2 0x292A DUP3 PUSH2 0x28E9 JUMP JUMPDEST PUSH1 0x20 DUP3 ADD SWAP1 POP SWAP2 SWAP1 POP JUMP JUMPDEST PUSH1 0x0 PUSH1 0x20 DUP3 ADD SWAP1 POP DUP2 DUP2 SUB PUSH1 0x0 DUP4 ADD MSTORE PUSH2 0x294E DUP2 PUSH2 0x2912 JUMP JUMPDEST SWAP1 POP SWAP2 SWAP1 POP JUMP JUMPDEST PUSH32 0x50726F7065727479206E6F7420617661696C61626C6500000000000000000000 PUSH1 0x0 DUP3 ADD MSTORE POP JUMP JUMPDEST PUSH1 0x0 PUSH2 0x298B PUSH1 0x16 DUP4 PUSH2 0x1EDD JUMP JUMPDEST SWAP2 POP PUSH2 0x2996 DUP3 PUSH2 0x2955 JUMP JUMPDEST PUSH1 0x20 DUP3 ADD SWAP1 POP SWAP2 SWAP1 POP JUMP JUMPDEST PUSH1 0x0 PUSH1 0x20 DUP3 ADD SWAP1 POP DUP2 DUP2 SUB PUSH1 0x0 DUP4 ADD MSTORE PUSH2 0x29BA DUP2 PUSH2 0x297E JUMP JUMPDEST SWAP1 POP SWAP2 SWAP1 POP JUMP JUMPDEST PUSH32 0x496E76616C69642074656E616E74206164647265737300000000000000000000 PUSH1 0x0 DUP3 ADD MSTORE POP JUMP JUMPDEST PUSH1 0x0 PUSH2 0x29F7 PUSH1 0x16 DUP4 PUSH2 0x1EDD JUMP JUMPDEST SWAP2 POP PUSH2 0x2A02 DUP3 PUSH2 0x29C1 JUMP JUMPDEST PUSH1 0x20 DUP3 ADD SWAP1 POP SWAP2 SWAP1 POP JUMP JUMPDEST PUSH1 0x0 PUSH1 0x20 DUP3 ADD SWAP1 POP DUP2 DUP2 SUB PUSH1 0x0 DUP4 ADD MSTORE PUSH2 0x2A26 DUP2 PUSH2 0x29EA JUMP JUMPDEST SWAP1 POP SWAP2 SWAP1 POP JUMP JUMPDEST PUSH1 0x0 PUSH2 0x2A38 DUP3 PUSH2 0x1B16 JUMP JUMPDEST SWAP2 POP PUSH2 0x2A43 DUP4 PUSH2 0x1B16 JUMP JUMPDEST SWAP3 POP DUP3 DUP3 ADD SWAP1 POP DUP1 DUP3 GT ISZERO PUSH2 0x2A5B JUMPI PUSH2 0x2A5A PUSH2 0x20B1 JUMP JUMPDEST JUMPDEST SWAP3 SWAP2 POP POP JUMP INVALID LOG2 PUSH5 0x6970667358 0x22 SLT KECCAK256 0xB8 0xB6 EXTCODEHASH MLOAD 0xD 0xAC 0xCD PUSH2 0x30F8 STOP SLT 0xA6 PREVRANDAO SDIV SWAP6 MOD PUSH28 0x7D19F32A624AF60AA2A94DB4F31964736F6C63430008140033000000 "},"methodIdentifiers":{"addProperty(uint256,uint256)":"03b66f63","approvedPaymentTokens(address)":"66fd7483","endLease(uint256)":"91ef935c","inititateLease(uint256,address,uint256)":"b36268bb","maintenanceRequestCount(uint256)":"78873895","maintenanceRequests(uint256,uint256)":"bd24dd95","owner()":"8da5cb5b","pause()":"8456cb59","paused()":"5c975abb","payRent(uint256,address)":"a363f03a","properties(uint256)":"f7b10808","propertyCount()":"c361a335","renounceOwnership()":"715018a6","requestMaintenance(uint256,string)":"79f4ffb9","setMaintenanceStatus(uint256,bool)":"a4f67672","setPaymentToken(address,bool)":"430884cf","testConnection()":"3412a15c","transferOwnership(address)":"f2fde38b","unpause()":"3f4ba83a"}}}}}